:1000000000800020BD01000015B20000D1B1000049
:10001000D1B10000D1B10000D1B10000D1B10000D8
:10002000D1B10000D1B10000D1B1000015B2000083
:1000300015B20000D1B1000065AA000069AA000055
:1000400015B2000015B2000015B2000015B2000094
:1000500015B2000015B2000015B2000015B2000084
:1000600015B2000015B2000015B2000015B2000074
:1000700015B2000015B2000015B2000015B2000064
:1000800015B2000015B2000015B2000015B2000054
:1000900015B2000015B2000015B2000015B2000044
:1000A000752D0000812D000015B2000015B2000072
:1000B00015B2000015B2000015B2000015B2000024
:1000C00015B2000015B2000015B2000015B2000014
:1000D00015B2000015B2000015B2000015B2000004
:1000E00015B2000015B2000015B2000015B20000F4
:1000F00015B2000015B2000015B2000015B20000E4
:1001000015B2000015B2000015B2000015B20000D3
:1001100015B2000015B2000015B2000015B20000C3
:1001200015B2000015B2000015B2000015B20000B3
:1001300015B2000015B2000015B2000015B20000A3
:1001400015B2000015B2000015B2000015B2000093
:1001500089AB0000A5AB0000C1AB0000DDAB000027
:1001600015B2000071B7000015B2000015B2000012
:1001700015B2000015B2000015B2000015B2000063
:1001800015B2000015B2000015B2000015B2000053
:1001900015B2000015B2000015B2000015B2000043
:1001A00015B2000015B2000015B2000015B2000033
:1001B00015B2000015B2000035A80000574B4CF2F4
:1001C000205210B5DA814DF62812DA8100BF00BF47
:1001D0000BF024F8524B4FF010621A63514A9A63A5
:1001E000514ADA63514A136913F4807303D153619E
:1001F0004FF4A85313614E4B9A78110703D59A78A0
:1002000042F008029A704B4B4B482A221A704B4B13
:10021000DA1C121AC11E22F00302994288BF002282
:1002200047490AF001FF474B4748DA1C121AC11E22
:1002300022F00302994288BF002200210CF0A4FFA3
:10024000424943484FF4DE720AF0EEFE414B424A07
:10025000802103F8011B9342FBD14FF0E0233C4A7D
:10026000C3F8082D3D4B8A221A70A3F5805324222F
:100270005A70A0221A709A799207FCD59A79D406FE
:10028000FCD4374B9A7902F00C02082AFAD10322E7
:100290001A7140225A719A799006FCD5304A9379A6
:1002A0005906FCD51E4B2F4959640221996420211F
:1002B0001170917901F00C010C29FAD12A4A5A6087
:1002C0004FF0E023294A5A6100229A6107221A61FD
:1002D000274AC3F8202D62B60BF0B8F8134B5B69C0
:1002E000DA0705D523480BF0A5F8234B234ADA613A
:1002F000234B1B785B0609D51F4C204BE2699A42C1
:1003000004D11C480BF096F80023E3610AF08CFF3F
:100310000CF0EAFF0AF080FEFEE700BF0020054077
:1003200000800440823F04000100002B00D0034005
:1003300000D0074000E007402097FF1FC8A0FF1F24
:100340004C9E0200B4AFFF1FC8A0FF1F00000000BA
:100350000092FF1F00E400E05FE400E00050064070
:100360000040064000000301C0100500FF760100B8
:10037000000020208A4A4C6A00E00340A5C3945A3A
:1003800000F00740FFFFFFFFFFFFFFFFFFFFFFFF42
:10039000FFFFFFFFFFFFFFFFFFFFFFFFFFFFFFFF6D
:1003A000FFFFFFFFFFFFFFFFFFFFFFFFFFFFFFFF5D
:1003B000FFFFFFFFFFFFFFFFFFFFFFFFFFFFFFFF4D
:1003C000FFFFFFFFFFFFFFFFFFFFFFFFFFFFFFFF3D
:1003D000FFFFFFFFFFFFFFFFFFFFFFFFFFFFFFFF2D
:1003E000FFFFFFFFFFFFFFFFFFFFFFFFFFFFFFFF1D
:1003F000FFFFFFFFFFFFFFFFFFFFFFFFFFFFFFFF0D
:10040000FFFFFFFFFFFFFFFFFFFFFFFFDEF9FFFF23
:100410000548064B1B1AD90F01EBA301491002D066
:10042000034B03B118477047C8A0FF1FC8A0FF1FA8
:100430000000000008B5054B1BB105490548AFF3A6
:100440000080BDE80840FFF7E3BF00BF00000000E8
:10045000C8A0FF1F449E020038B5144B01F5A0212F
:1004600081FB0313090C154651EA0342044605D0EB
:10047000D317002001210CF0CDF9024675B1237984
:1004800063B925714FF480339B1A002B236009DD7B
:1004900083FB0303000C40EA034038BD2368257149
:1004A000002BF1DC0020206038BD00BF7C3E5B01EA
:1004B000F8B5DDF818C004460E461F4672B390F832
:1004C0002050B5FA85F56D09E36984F820200133E1
:1004D000E3611B072BD02269A3682661964239D0BD
:1004E0003344052283FB02321B0C43EA024303F52B
:1004F00083732360A5B9D4E9002313445A4292B20E
:1005000017489BB258BF534283FB0002000C636044
:1005100040EA0240BDE8F84002F082BA1546D3E74F
:10052000002003466360BDE8F84002F079BA10236A
:10053000E3614FEA2C1104F11400FFF78DFF80FBFB
:100540000737226926611B0C43EA07435B1096427A
:10055000A360C5D1E268E3609A42C1D1CAE700BF97
:100560007E4806002DE9F04182B01746B1F5004FF4
:10057000B4BF00220122089D0277B7F5F80F4FEAB9
:10058000630CCCBF012300234FEA65050373099B6D
:10059000056104460760C0F820C0436100F387800E
:1005A000002380F870308368E16E481CC90700F1B1
:1005B0009180E0663946CDF800C004F13C00FFF7B9
:1005C00077FFA66994F81C80216943F2333386FBD8
:1005D000036307464246360C04F1340046EA0346FC
:1005E0001D14FFF739FF00FB05F3C11706FB0135AA
:1005F000A0FB0606030C216A4246354404F12C0098
:1006000043EA0545FFF728FF616987FB0020120CCC
:1006100042EA0042B1F5800F4FEA42004FEAA113CF
:1006200080F28C8085FB0323120C42EA0345A26A08
:10063000616A2B184B4882FB0005000C40EA05401C
:100640001B1A5B1A4FF65D7C83FB0C3C180C40EACE
:100650000C4003184FEA2C4C4CEB0C051B184CEBD0
:100660000505AD0045EA93759B001B184CEB050C86
:100670004FEA8C169D0146EA9366EB1A66EB0C0571
:10068000AD0045EA9375C3F38F3343EA05431A443B
:100690001344A36240F6CC4382FB0323120C42EACC
:1006A000034201EB4201616202B0BDE8F08190F8C3
:1006B0007030002B4AD10179012084F870000029A4
:1006C00049D1E16E20714FF44813481CC907A3605B
:1006D0007FF56FAF616E44F2ED3041F6EF6500FBE0
:1006E00001556842216EC0F30E00C5F30E0546F6B3
:1006F000393658BF454243F2091006FB010041421A
:10070000C1F30E014FEA0546C0F30E00656658BFFF
:100710004842ED17B6196D41360C46EA0546050408
:100720006D1920664FEAE07040412D0C45EA004506
:10073000761B76000221A661E1663BE7C3F5003334
:1007400083FB00321B0C43EA024070E7012380F870
:100750007030836828E7012912BFA3682371A36062
:1007600022E700BFCC0C020038B54910114B01F54F
:10077000A02181FB0313090C154651EA03420446EC
:1007800005D0D317002001210CF044F802464DB1EA
:1007900023793BB925714FF48030801A00282060FE
:1007A00004DD38BD206825710028F6DC00202060BB
:1007B00038BD00BF7C3E5B012DE9F041DDF818C07B
:1007C000079C05460F4698465AB390F82060B6FA43
:1007D00086F67609EB6985F820200133EB611B076B
:1007E0002AD02A69A9682F61974238D03944CB179B
:1007F00049185B41090C41EA03414131296096B136
:10080000812384FB0343240C44EA034416486C60B0
:1008100084FB0040240C44EA0040BDE8F04102F0B3
:10082000FFB81646D6E7D5E900341C4463429BB2B4
:10083000A4B258BF5C42E9E710234FEA2C11EB61E8
:1008400005F11400FFF790FF80FB0808020C42EA54
:10085000084251102A69A96097422F61C6D1EA68FF
:10086000E9608A42C2D1CAE77E48060030B583B04B
:100870000546B1F5004FB4BF00200120069C287347
:1008800011460246079829602B61009323466C604D
:10089000A860019005F12400FFF78EFF2A7B2969EB
:1008A000044605F11C00FFF75FFFA969204A84FB9D
:1008B000003081FB022C1B0C120C6C6942EA0C42CA
:1008C00043EA00439B1A1B1B4FF2276083FB003057
:1008D0001B0C43EA0043DA184FEA204040EB000CBF
:1008E000D31840EB0C0002014FEA031C42EA1372DA
:1008F00013EB0C0340EB020002024FEA032C42EA26
:10090000136213EB0C0340EB02001B0C43EA0043A1
:10091000194443F233320B4481FB0212080C40EAC3
:100920000240AB6104EB400320446B6103B030BD77
:1009300033330200F8B5B1F5004F04461F46B4BF8B
:1009400000230123B1F5004F0698079E237037DB83
:10095000E369B3F5FA4F01DA0133E36194F820302B
:10096000002B40F0FF80012384F82030089BB3F572
:10097000960F40F30C81089BA3F5960C40F2B91337
:100980008CFB03311B0C43EA014303F580334FF426
:10099000983183FB0115090C2CEAEC7C41EA0541F6
:1009A00001EB2C31A160502186FB0115090C41EAB5
:1009B000054103EB6C2503EB2C232361E56005E087
:1009C00000236168E568E36184F8203000F5401396
:1009D000D8184FEAE3735B414FEAE27C000C120C3B
:1009E00042EA0C4240EA03404FEAE57C00FB0CFC83
:1009F0001B1405FB03C3A0FB05052B44000C40EAB8
:100A0000034002F13B0303EBE20319440144636139
:100A10004B429BB2664889B258BF5942616081FB24
:100A20000010090C41EA004001F0FAFFA169A56835
:100A3000FB0141F6EF6244F2ED3707FB0122514220
:100A4000C1F30E01C2F30E0258BF4A421104491805
:100A5000A2614FEAE2725241090C41EA0241276960
:100A60003212A1F50041B61106F5803C81FB071654
:100A7000090C41EA064102F5C05282FB0121160C25
:100A800080FB0502000C40EA024046EA01460644AB
:100A900086FB0C6C360C13F5101246EA0C4605D09A
:100AA000D317002001210BF0B5FE0246237833B1A5
:100AB000E369B3F5007FC4BF6B1303EB2212E36855
:100AC000AD1AA7F52057603B25EAE57523EAE373E5
:100AD00027EAE777B6F5C03FA560E36027614DDC04
:100AE00016F5C03F62DBB6F5803F41DC16F1011F11
:100AF00047DDA06A2F4B656A80FB03321B0C43EA7B
:100B00000243F61A761B4FF2276186FB0161320C15
:100B100042EA014293184FEA214141EB01069B183A
:100B200041EB06010A011E0142EA13729B1941EBD7
:100B300002010A021E0242EA13629B1941EB020102
:100B40001B0C43EA0143184443F23332034480FB55
:100B50000202A362030C43EA0243E81805EB4305D3
:100B60006562F8BD01236168E56884F820302DE7EF
:100B7000A6F58036B61006F58036BAE74FF4C036D3
:100B8000B7E706F58036B610A6F58036B1E70899C6
:100B90004FF40E7381FB03311B0C43EA01430899A8
:100BA00003F5B3431A33A1F5960CF0E6024EA0E725
:100BB0007E480600333302000080FEFF38B5144B38
:100BC00001F5A02181FB0313090C154651EA0342EC
:100BD000044605D0D317002001210BF01BFE02466E
:100BE00075B1237963B925714FF480339B1A002BBB
:100BF000236009DD83FB0303000C40EA034038BD9A
:100C000023682571002BF1DC0020206038BD00BF77
:100C10007C3E5B012DE9F041069C079E5B10E410D1
:100C200005460360046247F6FF7C806E614500F173
:100C30000100D4BF002101216245D4BF0027012754
:100C4000DDF820C0A866B610C007EE6169762F7681
:100C5000C5F810C062D56869AA6D0132AA6592070D
:100C600000F0A680AB686A68134441F6991283FBD2
:100C700002321B0C43EA0243BCF5800F4FEA6000CE
:100C80004FEA63034FEAAC1280F28A8080FB0220B5
:100C9000120C42EA004000EB03080A4605F1380056
:100CA0002146FFF78BFF88FB0003040C44EA034452
:100CB0003A4631466C6205F13000FFF77FFF80FB5A
:100CC00008381B0C43EA0843EA6AEB601C44624B99
:100CD000A96A82FB03301B0C43EA0043E41A641A3E
:100CE0004FF65E2384FB0343200C40EA034042F2AC
:100CF00066641E14A0FB043704FB06761B0C43EA53
:100D000006431A44134482FB0424120C42EA0442B0
:100D100001EB4201EB62A962BDE8F0812A6E44F268
:100D2000ED3E41F6EF600EFB0200D0F1000EEA6DE1
:100D3000CEF30E0EC0F30E0046F6393858BFCEF192
:100D4000000043F2091E08FB02EEDEF10002C2F3CE
:100D50000E02CEF30E0E58BFC2F1000E020492181E
:100D600028664FEAE0704041120C42EA00424FEA26
:100D70000E400018C5F85CE04FEAEE7E4EEB0E0E1A
:100D8000000C40EA0E40121A520043F2333082FB4C
:100D90000002000C40EA024002226861AA665BE79A
:100DA000C2F5003282FB0323120C42EA034372E7CE
:100DB0004FF0307283FB022E120C42EA0E42D5F83D
:100DC00054E06A654FF004089645C5F858803ED057
:100DD0004FEAE27E120C42EA0E42EA64D5F850E095
:100DE0007244D2F1000E1FFA8EFE92B258BFCEF1BD
:100DF0000002B2F5004F2A65184A83FB023E4FEA13
:100E0000134242EA0E42D5F848E0154BAA64A8BF47
:100E10004FF480339645AB601BD04FEAE27E120C54
:100E200042EA0E422A64D5F844E07244D2F1000E40
:100E30001FFA8EFE92B258BFCEF10002B2F5004FFB
:100E40006A64074AA8BF4FF480326A600CE7EA6C14
:100E5000C4E72A6CE7E700BF662602000000BC0476
:100E60000000FFFF30B50024F9B001AA2146054675
:100E70000520009401F02AFE08AA21460520CDE9AC
:100E8000064401F023FE0EAA214605200D9401F030
:100E90001DFE13AA2146052001F018FE18AA2146BE
:100EA000062001F013FE45F2CE635022CDE9204327
:100EB000CDE91E44CDE92244CDE92444CDE92644C0
:100EC000CDE92A44CDE92C44CDE92E44CDE9344482
:100ED000CDE93644CDE93844CDE93A44CDE93C4446
:100EE00028462894ADF8A4408DF8C04031948DF880
:100EF000C840339469463E94CDE94244CDE9464426
:100F0000CDE94844CDE94E44CDE95044CDE95644BD
:100F1000CDE95844CDE95C448DF8FC4040948DF80F
:100F2000044144948DF814418DF828414B948DF878
:100F300030414D9452948DF84C4154948DF8544165
:100F40008DF868418DF86C41CDE95E4460924FF4B4
:100F5000F072CDE96444CDE96644CDE96A44CDE957
:100F60006C44CDE97044CDE97244619362948DF88C
:100F70008C4168948DF8A4418DF8B8416F947494B5
:100F80008DF8D44176948DF8DC410AF04DF879B0B3
:100F900030BD00BFFFF766BF10B5C36984B004461B
:100FA000002B4DD1D0F88830002B51D1C06DA16DF0
:100FB000636D226D01900091E16C04F5CC70FFF738
:100FC00055FCD4F888306063002B3ED1A36FB3F595
:100FD000960F4BDDA3F5960340F2B91283FB023264
:100FE0001B0C43EA024303F5803380FB0330D4F843
:100FF00080201B0C43EA0040002A606325DDD4F802
:10100000841044F2ED3C41F6EF630CFB0133C3F373
:101010000E0113F0010F4FEAA20308BF5B42184410
:10102000B2F58052606348BF00234FEA6000C4F805
:10103000841054BFC4F88020C4F8803004B010BDC0
:10104000012B1ED0022B2BD0406B401004B010BDE2
:10105000816FC26D636D806D02910192226DE16CB2
:10106000009004F5B670FFF765FCAAE74FF40E7226
:1010700083FB02321B0C43EA024303F5B3431A33EA
:10108000B3E7616C806C236CE26B01900091A16B03
:1010900004F1F800FFF766FA6063401004B010BD79
:1010A000416F026FA36EC06E02910192626E216E5B
:1010B000009004F18C00FFF7ADFD6063C5E700BF51
:1010C0002DE9F041804609F0E3F9D0B10746041D4F
:1010D00008F1180600F5827500213046FFF75CFF25
:1010E00000EBD070401024F8020BA542F4D140462A
:1010F0003946002209F04CFA3846BDE8F04109F0C3
:101100001DBABDE8F08100BF20290BD0212903D1F1
:101110004FF480338363704722290FD14FF480331B
:1011200003667047D0F888304FF48032C26423B928
:10113000C36FDB11C0F88030704770472329FCD1A2
:101140004FF4803343667047202909D0212902D10A
:10115000002383637047222905D10023036670476B
:101160000023C3647047232902D1002343667047DC
:10117000704700BF1C291BD01D290AD11204B2F5EB
:101180000C1F34DBB2F5960FACBF022301230360C2
:1011900070471E2902D1120402657047A1F11F0396
:1011A000072B0CD8DFE803F0450B423F3C39362BC8
:1011B0001204B2F50C1F13DA0023C361704727290C
:1011C00002D1120482667047282904D1520402F524
:1011D0008032C266704729290CD112040267704719
:1011E000B2F5960FB4BF01230223C36170470023F9
:1011F000036070472A2904D1120442677047130420
:1012000083642B2918D1002AD4BF00220122C0F800
:101210008820704713044364F3E713040364F0E782
:101220001304C363EDE71304C365EAE7130483659E
:10123000E7E713044365E4E72C2902D1120482672F
:1012400070472D2902D11204C2677047704700BF52
:101250004FF40013002245F2CE61C264036543657A
:101260008365C3658263C363036443648364026606
:1012700042668366C366036743678267C267C0F8D6
:101280008020C0F88410C0F8882070472DE9F84FFE
:10129000AD4D2B78002B00F09580AC4BAC4F1B78FC
:1012A000DFF8B0B2DFF8B0A2DFF8B0924FF002087A
:1012B0003E4600249BBBDBF800303B60DAF8003090
:1012C0007B60062009F0C0FD0E282B7800DC0CB1F5
:1012D000032B57D104EB8303316859F82320101DE9
:1012E000884280F2DE80082009F0AEFD0E2802DC84
:1012F000002C40F00A812B78032B00F0A7800820F7
:1013000009F0A2FD0F2800F3F680043608F1010869
:10131000002C35D18D4B1B780124002BCBD0DBF872
:101320000030BB60DAF80030FB60062009F08CFD6D
:101330000E282B7800DC0CB1032B33D108EB830390
:10134000B16859F82320101D884280F2A38008203C
:1013500009F07AFD0E2802DC002C40F0DF802B78AB
:10136000032B00F08580082009F06EFD0F28CCDDEE
:10137000002CCAD0794B2978FA6803EB0113DA60A4
:10138000BDE8F88F062009F05FFD0F28ABDD002CCB
:10139000A9D12B783A681B01082049F8032009F0ED
:1013A00053FDA8E7062009F04FFD0F28CFDD002CE4
:1013B000CDD12B78BA6809EB031308209A6009F0A5
:1013C00043FDCCE7614B664E1878337841004D1CE5
:1013D000002B6DD05F4BDFF88C81D3F800C0DFF8B5
:1013E00088E15D4BD8F800201F68DEF80030ACEBD8
:1013F0000202002AA7EB0303B8BF524283EAE37458
:10140000012AA4EBE37440F39380584BC8F800C062
:101410001B78574A01EB8308012C42F828C04FEA99
:10142000830C04DDAC44CEF8007042F82C7000242C
:1014300034701B01002951D0002854D1D0184749DD
:10144000D2584368C1E90023BDE8F88F04F10C02CB
:10145000316859F82220101D8842FFF656AF043A31
:101460008A423FF752AF04EB830349F823104CE75D
:1014700008F10C02B16859F82220101D8842FFF6CD
:1014800044AF043A8A423FF740AF08EB830349F880
:1014900023103AE7043A9142FFF659AF49F8231076
:1014A00055E7043A9142FFF61EAF49F823101AE7B8
:1014B000284A2E4B16681B78274A05EB83051468CB
:1014C0002B4A01EB830742F8276042F82540254D5F
:1014D0002E60254D2C601B010029ADD1D158116023
:1014E00011610028AAD013441C4A9968DB689160F6
:1014F000D360BDE8F88F002C3FF407AF174B297875
:101500007A6803EB01135A603AE72B78316809EBEC
:1015100003125268101D8142A1DD31E72B78B168BA
:1015200008EB830259F82220101D8142A9DD27E72C
:10153000012C0E4B04DD1B780D4A4FEA830C71E73A
:101540000B4A1B78C7E700BF8EA1FF1FF4A0FF1F47
:101550003498FF1F4498FF1F4898FF1F90A1FF1F5A
:10156000D5A1FF1F2C98FF1F3098FF1FD6A1FF1F8A
:10157000D8A1FF1F70B582B0044616460D4609F08B
:1015800059F80022009233462946204609F0C6F851
:10159000204602B070BD00BF38B50B460E4D056049
:1015A00000210446437202610172C1601BB1104602
:1015B0009A000BF0E9FD094A136853B11A465B69BA
:1015C000002BFBD154610023A3726361636020464A
:1015D00038BD1460F7E700BF44940200DCAAFF1F87
:1015E00030B40246134C144B42F8183B2368026196
:1015F00000214FF480750581C1608161BBB11A463D
:101600005B69002BFBD150610C490D4C0D4A016008
:1016100000234FF468154FF000518562C4624361A6
:1016200030BC43608372037701634263704720607C
:10163000EAE700BFDCAAFF1F44940200B89702004B
:101640000E00C10077061C0010B40146124C134B6B
:1016500041F8283B2368016100224FF4806CA0F818
:1016600008C0C2608262C2620263426393B11A46DA
:101670005B69002BFBD150614FF480330022084995
:1016800010BC42614260827201608361C361036287
:10169000436270472060EFE7DCAAFF1F449402001A
:1016A000C4970200214B224810B54FF4C0324FF4CA
:1016B00040341A625A629C61DC610C2108F074FEAD
:1016C0001C48FFF7C5FD0021022009F045FF00215D
:1016D000082009F041FF0021092009F03DFF012108
:1016E0000B2009F039FF0121062009F035FF012107
:1016F000052009F031FF0121042009F02DFF01210F
:10170000032009F029FF0D2009F06AFB0A4A0B4B60
:101710004FF0010C4FF00A700021A2F82AC0D062ED
:101720001163A3F82AC0D862196310BD04A2FF1F79
:101730000082FF1F84A3FF1F18A1FF1F50A1FF1FDE
:1017400070B5092009F080FB0446062009F07CFBF7
:10175000334E03460720336009F076FB0546082028
:1017600009F072FB2F4B18602F4B1B7863B933685D
:1017700060281C4484F30D042C4B2DDC1B786BBBC0
:101780004B202B4B186011E09A1E012A39D9326880
:1017900041F6FF73144405449C42A8BF1C469D4279
:1017A000A8BF1D4624EAE47425EAE57520460AF040
:1017B000D1FD2049204C0AF0D5FE0AF0E5FF034692
:1017C000236028460AF0C6FD1A491C4C0AF0CAFEDE
:1017D0000AF0DAFF206070BD01221A700AF0BAFD2B
:1017E00014490AF0BFFE002106460AF0A5FF70B9B1
:1017F000134930460AF0BEFF80B930460AF0C4FFF4
:10180000BFE7022B05D0054485F30D05CEE7002088
:10181000B7E733681C4484F30D04C7E77F20B0E7C3
:1018200078A2FF1F7CA2FF1F8EA1FF1FD4A1FF1F64
:10183000D0A1FF1F000081424498FF1F4898FF1F5E
:101840000000FE422DE9F047082009F077FE7B4CAE
:1018500003467B48236008F047FD00287DD12268BD
:10186000012A58D0774C784B784A1B781578784EF7
:1018700000223270002B6BD1764977480B68774A8B
:10188000013300FB032276480B60B0EBF20F754882
:10189000026842F2107724BF01320260BB42C4BF2B
:1018A00000230B60B2F57A7F0ADD0023036055B197
:1018B00001210B2009F01CFE23785BB9BDE8F087FD
:1018C0000DB1D207F4D500210B2009F011FE2378C9
:1018D000002BF3D0DFF89081D8F8003043F698223F
:1018E00001339342C8F80030E8DDDFF8809199F8C1
:1018F0000020002A43D05E49574A02FB0312B1EB95
:10190000720F6DD25B4A00231360BDE8F0470121DE
:101910000B2009F0EDBD584B1B6841F294118B422E
:10192000A0DD484C2378002B9DD14849534B0D78BE
:101930001A7085F001050D7051492270514A0968ED
:1019400011605149404B514A09681B7811608EE77C
:10195000494B1A6801321A608EE7394808F0FEFCDC
:101960000546002841D0444B394E37493748354C5D
:10197000057800221A60327001220A70E9E7DFF868
:1019800010A104273C1F554655F8041B2046C9B238
:10199000013409F01BFBBC42F6D1102C0AF1100AED
:1019A00004F10407EED13178112009F00FFB304922
:1019B000D8F80030284A02FB03120120B1EB720F65
:1019C00089F800000CD22B4AB3F57A7F9BDC1368B0
:1019D000DB079AD5BDE8F04700210B2009F088BD50
:1019E000244A116801311160EEE7154808F0C0FC87
:1019F00000283FF434AF204B13481968057040F6B7
:101A0000B732914210DC23491D4C0A7824681B48E8
:101A1000B2FA82F252090A701A4A1B4914601B4A30
:101A20000968116001240470064C0849084E0D78BD
:101A300000221A60227032701EE700BFECA0FF1F68
:101A4000FCA2FF1F74A2FF1F68A3FF1FF4A0FF1FCB
:101A50008EA1FF1F88A1FF1FD578E926D824060193
:101A60003689410014A1FF1FE4A0FF1F8DA1FF1FB5
:101A7000DC240601E0A0FF1F14A3FF1FD5A1FF1F58
:101A80004498FF1F2C98FF1F4898FF1F3098FF1F96
:101A900090A1FF1FD6A1FF1F2DE9F041954D2A7897
:101AA00082B0002A66D1944C944E22789448170153
:101AB00006EB0215A2F10102B2FA82F252090123E9
:101AC0002B21FFF757FB2278002A63D1F359192BFA
:101AD00057DC01238A481E21FFF74CFB2378012B9A
:101AE000884B61D01C68002CC0F2C8807F2C6DDC54
:101AF0004B2C40F3E8805723834A4B3C03FB04F410
:101B0000A2FB0424240928344B2C2346B8BF4B23C2
:101B10004A2CA3F14B0340F3E9807C4AA2FB032843
:101B20009F104FEA5808D81000231E46784A1178B3
:101B30006A68002950D07749DFF8DCE1D1F800C0AD
:101B4000DEF8001000910099A1EB0C01322943D975
:101B5000DEF80010019101993239A1EB0C0111F16D
:101B6000020FC0F2A080B1F5C07FC0F2B680FE3295
:101B70007F2199E0012A5DD0022A6DD002B0BDE834
:101B8000F081B3F58D7FDDBF1B3B03EBD3735A10A0
:101B90007F229EE70123F25959481E21FFF7EAFAF6
:101BA0002378012B574B9DD11B68002BC0F28980F5
:101BB0007F2B72DC4B2B7CDD4B3B534AC3EB031377
:101BC0005C00A2FB042424091E3467E006200D27D4
:101BD0004FF011087F24A7E75049096802EB410242
:101BE00002441A4482F30702454801231F21FFF7EC
:101BF000C1FAAA684248424482F307020123212124
:101C0000FFF7B8FAEA683E483A44012382F3070234
:101C10002221FFF7AFFA2246394801232C21FFF792
:101C2000A9FA3748012332462D2102B0BDE8F04120
:101C3000FFF7A0BA3A4E324F002404EB8202012390
:101C400004F1230156F822201C443846FFF792FA8B
:101C5000042C93D02A78F0E7314E294F002404EB6E
:101C60008202012304F1270156F822201C44384641
:101C7000FFF780FA042C81D02A78F0E74B26002465
:101C80000023224AD810A2FB03289F1006EBD6732C
:101C90005B104FEA58085B4248E73C2400266A681C
:101CA0003746B046A0E70021DFF870C0CCF800103E
:101CB00096E71C4AC3EB03146400A2FB0424E40867
:101CC000ECE70024EAE7174A04EB8404E400A2FBF3
:101CD0000424E408C4F14B06D2E7DFF84CC08CFBC7
:101CE00001ECACEBE17102EB4102DDE7C4F14B0624
:101CF000C7E700BF8EA1FF1FD6A1FF1FD8A1FF1FFE
:101D000084A3FF1F2898FF1F4FECC44EABAAAAAABA
:101D1000E9A0FF1FFCA1FF1F88ABFF1FF8A1FF1F59
:101D200090A1FF1FB5814E1B5655555538B5304C07
:101D30002378002B3DD10121032009F0D9FB217824
:101D400001293DD00021042009F0D2FB2378022B89
:101D50004FF00F053CD00021052009F0C9FB237886
:101D6000032B3ED00021062009F0C2FB21480123AD
:101D70002A461C21FFF7FEF92478C4BB1E4D2978A2
:101D8000B1FA81F10320490909F0B2FB2978A1F1E8
:101D90000101B1FA81F10420490909F0A9FB2146AA
:101DA000052009F0A5FB21460620BDE8384009F0D2
:101DB0009FBB0021032009F09BFB21780129C1D1A1
:101DC000042009F095FB2378022B4FF03C05C2D18B
:101DD0000121052009F08CFB2378032B4FF05005DF
:101DE000C0D10121062009F083FB5025BEE738BD94
:101DF0008EA1FF1F84A3FF1FD6A1FF1F2DE9F0476F
:101E0000082082B009F020F8924D074609202E786C
:101E100009F094FB012806F120086DD0092009F093
:101E20008DFB044670B92B78022B04D9032B1FD0ED
:101E300002B0BDE8F087884841460122FFF784F9E7
:101E4000864B1C702B78022BF0D1B7F5FA7F40F34C
:101E50008980834C2378002BEAD101237F227E489E
:101E600006F12101FFF750F901222B782270DDE7FE
:101E70007C4B7D4A1B787D49002B53D1536B7C48AA
:101E800081FB0341DB17C3EBE1030360002B40F050
:101E90008E80106B6D2840F33782764B764C4DF276
:101EA0006B72DA85092009F049FB0128054600F02C
:101EB000D1812368002B66D1704C2368B3F5FA7F7B
:101EC00004DD674D2B78002B00F0CB81092009F051
:101ED00035FB08B9614B18702368C72B02DC604BD7
:101EE00000221A70092009F029FB0028A0D15B4BC1
:101EF000187002B0BDE8F087DFF8609199F8003003
:101F0000002B8BD12B78022B88D8002B00F0B481CA
:101F1000012351487F224146FFF7F6F8012389F853
:101F200000307BE7D36B544C81FB0301DB17C3EB21
:101F3000E1032360002B2FD1906B6D2840F3948137
:101F40004B4B4F4A1B684DF26B71D185002BA9D0CA
:101F5000013B042BADD8DFE813F01401FD00E600CF
:101F6000C800AA00C72F3FF763AF012206F1210185
:101F70003948FFF7E9F82B78394A0021032B117013
:101F80007FF456AF74E7013B3C4C042B9ED8DFE84E
:101F900003F054473A2D1900013B042B00F21E8137
:101FA000DFE813F02A014201FD004D011F01013B52
:101FB000042B00F24383DFE813F0DB00C400AD0024
:101FC0008F0071002368B3F5FA7F7FF77FAF244D50
:101FD0002B78002B7FF47AAF2A482B4901F014FEAE
:101FE000012327482B7001F033FA6FE72368B3F51C
:101FF000FA7F7FF76BAF1A4D2B78002B7FF466AF1B
:1020000022492048EAE72368B3F5FA7F7FF75EAFFD
:10201000134D2B78002B7FF459AF1D491948DDE78C
:102020002368B3F5FA7F7FF751AF0D4D2B78002B66
:102030007FF44CAF17491348D0E72368B3F5FA7F14
:102040007FF744AF064D2B78002B7FF43FAF12494A
:102050000C48C3E78EA1FF1F84A3FF1FE9A0FF1F49
:10206000E8A0FF1FF4A0FF1F90A1FF1F6766666630
:102070000CA3FF1F18A1FF1F10A3FF1F78A2FF1FB3
:1020800050A1FF1F40A3FF1F1CFD0000A0EC01009A
:10209000A402020098D700002C610200106B6D288A
:1020A00040F3EE81A94BAA4C4FF6FF72DA85092066
:1020B00009F044FA012805467FF4FBAEA54E3378BB
:1020C000002B7FF4F6AEA448A44901F09DFD9F4883
:1020D000357001F0BDF9ECE6106B6D2840F3F88126
:1020E0009A4B9B4C46F6B632DA85092009F026FA5F
:1020F000012805467FF4DDAE964E3378002B7FF441
:10210000D8AE9749944801F07FFD9048357001F0B2
:102110009FF9CEE6136B6D2B40F392818B4B8C4C69
:102120004DF26B72DA85092009F008FA012805469C
:102130007FF4BFAE874E3378002B7FF4BAAE894967
:10214000E0E7106B6D2840F3E581804B804C4DF249
:102150006B72DA85092009F0F1F9012805467FF450
:10216000A8AE7C4E3378002B7FF4A3AE7E49C9E73E
:10217000106B6D2840F3EF81744B754C4DF26B7210
:10218000DA85092009F0DAF9012805467FF491AED5
:10219000704E3378002B7FF48CAE7449B2E7936BAA
:1021A0006D2B3FF7CDAE9B0003F10A000AF0D2F889
:1021B000002105460AF0C0FA00282FD16C492846B4
:1021C0000AF01CF90AF006FBC31D4FF6FF71DB088D
:1021D000684A994228BF1946D18503B3664B1B68EC
:1021E000B4E6906B6D2840F3D581634B614A1B6860
:1021F0004FF6FF71D185A9E6906B6D283FF7A0AE31
:102200000AF0A8F85D490AF0F9F85D4909F0EEFF17
:10221000002105460AF090FA0028CFD0554A564BC7
:1022200001211B68D18591E6906B6D283FF788AE40
:102230000AF090F853490AF0E1F85149E6E7906B4B
:102240006D2840F33D814B4A4B4B46F6B6311B6837
:10225000D1857BE63F4E3378002B7FF42AAE4A4986
:1022600050E749494948B9E60AF074F84FF07F5100
:102270000AF0C4F84249C9E70446082008F0E4FD22
:102280006028434B40F396801C700AF063F8414984
:102290000AF068F9002182460AF04EFA002840F060
:1022A000B0803D4950460AF065FA0446002840F0E7
:1022B000978050460AF068FADFF8E0A0384B1860C3
:1022C0009AF80030012B40F0AD80002880F2668142
:1022D0000123344822462C21FEF74CFF9AF80030A7
:1022E000012B00F08C80C4F14B0201232D212D48DD
:1022F000FEF740FF2C4B2D4A1B68019301992C4B94
:10230000116000221A6003E60AF024F84FF07F51B2
:102310000AF074F81A4909F069FF002104460AF02E
:102320000BFA002857D1124920460AF067F80AF044
:1023300051FAC31D4FF6FF71DB08044A994228BFCA
:102340001946D185002B47D0014CABE518A1FF1FE2
:1023500010A3FF1FE9A0FF1F18A3FF1F1CFD000013
:10236000A0EC0100A402020098D700002C6102003A
:102370007978304250A1FF1F0CA3FF1F666606400C
:1023800000002041CDCC0C40283C020040A3FF1FA0
:10239000D4A1FF1F000081420000FE42D6A1FF1F12
:1023A0002898FF1F84A3FF1F88ABFF1FFCA1FF1FFE
:1023B000F8A1FF1F1B78002B7FF467AFDFF880A226
:1023C000A04B9AF80020012A4FF04B021A600CBF74
:1023D0001E2428247CE79C4A9C4C0123D38561E57C
:1023E000DFF85CA297499AF800307F22012B0A603F
:1023F00000F0FF80964801232C21FEF7BBFE00224F
:1024000073E7DFF83CA28F4A9AF800300020012BD6
:10241000106000F00C81282303FB00F04B24B0FB7C
:10242000F4F455E70028FFF653AF7F2840F3E3802C
:102430007F22874801232C21FEF79CFE224654E789
:102440009B0003F10A0009F085FF002104460AF011
:1024500073F9002840F0BE807E49204609F0CEFF87
:102460000AF0B8F9C31D4FF6FF71DB08764A9942AE
:1024700028BF1946D185002B00F0AD80734C52E681
:10248000C0EB0010053009F065FF002104460AF09A
:1024900053F9002840F099806E49204609F0AEFFBC
:1024A0000AF098F9C31D4FF6FF71DB08664A99429E
:1024B00028BF1946D185002B00F08880634CF6E5D3
:1024C00009F048FF4FF07C5109F098FF62499DE602
:1024D00009F040FF4FF07C5109F090FF5E4909F090
:1024E00085FE002104460AF027F900287CD15949CD
:1024F000204609F083FF0AF06DF9C31D4FF6FF7106
:10250000DB08514A994228BF1946D185002B6CD06F
:102510004E4CEAE509F01EFF504909F06FFF5049A3
:1025200009F064FE002104460AF006F9002856D19D
:102530004849204609F062FF0AF04CF9C31D4FF6E6
:10254000FF71DB08404A994228BF1946D185002B0C
:1025500046D03E4CFEE509F0FDFE424909F04EFF33
:102560003F4909F043FE002104460AF0E5F838BB74
:102570003849204609F042FF0AF02CF9C31D4FF6F6
:10258000FF71DB08304A994228BF1946D185C3B193
:102590002E4CF6E5C0EB0010053007E67F28C8BFDB
:1025A0003C243FF795AE4B2841DD1E22A0F14B03A2
:1025B00002FB03F33422B3FBF2F303F11E0487E6BC
:1025C000214A224C0123D385DBE51F4A1F4C0123FE
:1025D000D3856CE51C4A1D4C0123D385A3E51A4A1B
:1025E0001A4C0123D385B5E5174A184C0123D3852E
:1025F0007BE51046D9E74B287FF70DAFA0F14B03E1
:10260000572202FB03F33422B3FBF2F303F1280455
:102610000F48012322462C21FEF7ACFD9AF800302A
:10262000012B3FF4ECAE4A2C3FF7E9AE5BE61E23EC
:1026300003FB00F04B24B0FBF4F449E6034C88E4C0
:10264000D6A1FF1F2898FF1F18A1FF1F10A3FF1F6F
:1026500084A3FF1F797830420000A040CDCC0C400D
:1026600000002041666606402DE9F843DFF87491CA
:1026700099F80030A3BBDFF8708104264746341F69
:102680003D46204608F088FC01348028A8BF002081
:10269000B44245F8040BF4D1102C04F1040607F100
:1026A0001007ECD1514B524C524E534F00221A702E
:1026B00098E80F0004F1100584E80F0085E80F008A
:1026C00086FB0316DB17C3EBE6033B60CBB96D2A31
:1026D0001FDD4A4B4DF26B72DA85012389F8003019
:1026E000FFF7B0F8FFF72CF8FFF720FB444B1B680F
:1026F0000BB9FEF7CBFDFFF7CFF9BDE8F843FFF7C5
:102700007DBB013B042BE8D8DFE803F04054264BA7
:102710003700104609F01EFE4FF07F5109F06EFEA3
:10272000384909F063FD002104460AF005F810BBA2
:102730003549204609F062FE0AF04CF8C21D4FF6FA
:10274000FF71D2082D4B914228BF1146D985002A2E
:10275000C3D10122DA85C0E7D8F808306D2BB8DC88
:102760009B0003F10A0009F0F5FD0021044609F081
:10277000E3FF0028DCD0214BEBE7D8F808006D28F8
:1027800023DD1E4B4FF6FF72DA85A6E7D8F8080066
:102790006D289EDC09F0DEFD1C4909F02FFE194969
:1027A000BFE7D8F808006D2813DD144B46F6B632A3
:1027B000DA8592E7D8F808006D288ADC09F0CAFDAE
:1027C000134909F01BFE0F49ABE7C0EB00100530C1
:1027D000C9E709F0BFFD4FF07C5109F00FFE0D492C
:1027E0009FE700BF8CA1FF1F90A1FF1F8EA1FF1FBD
:1027F000D8A1FF1F6766666610A3FF1F50A1FF1FC9
:10280000ECA0FF1F00002041797830426666064048
:10281000CDCC0C400000A0402DE9F04387B008F07B
:1028200085FB282208216248624D634F07F046FD70
:10283000624B1A680292029A196803910398196808
:10284000049104991B6805935D4B059C1A605D4BD0
:102850005D4A18605D4B5E4819602B68046000217A
:10286000176011611181D160002B00F09C80194626
:102870005B69002BFBD14A610024564BDFF858817D
:102880001360564E5648546154609472FEF782FBB2
:10289000224621464046FEF77FFEDFF8489188F841
:1028A0002640224621463046C8F80090FEF774FEC6
:1028B0004D48C6F8009086F82640FEF791FE4B483A
:1028C000FEF78EFE4A48FEF7BFFE4A48FEF7BCFE02
:1028D000494A13464FF4807143F8187B13612B6803
:1028E000D46011819461002B5FD019465B69002B85
:1028F000FBD14A61414B13600024546154609472CF
:102900003D4800F025FF384A33493D48FEF732FE86
:102910003C4A3D493A4809F05DFC344A2F493B485E
:10292000FEF728FE374A3849384809F053FC384842
:1029300007F080FE2F4B244900942246344807F0CC
:10294000EDFE304A3049324809F044FC314807F086
:1029500071FE0220274B0090224623492D4807F0A4
:10296000DDFE284A28492B4809F034FC03252A4873
:1029700007F060FE1F4B1D4900952246264807F0D0
:10298000CDFE204A2049244809F024FC1A4A19495E
:102990002248FEF7EFFD1B4A1B49204807B0BDE85F
:1029A000F04309F017BC2A6066E72A60A2E700BF7F
:1029B000FCA2FF1FDCAAFF1F4494020088ABFF1F8C
:1029C000FCA1FF1FF0A0FF1F6CA3FF1F00A2FF1FB1
:1029D000F8A2FF1F3894020018A3FF1F40A3FF1F97
:1029E00084A3FF1FDC97020018A1FF1F50A1FF1F47
:1029F0003CA2FF1F04A2FF1FF8A0FF1FD0970200F8
:102A0000A8A2FF1F2498FF1FD1A70000E4A2FF1F68
:102A100080A2FF1FD0A2FF1F94A2FF1FBCA2FF1F16
:102A2000264B274910B583FB0024C217C2EB644232
:102A300001FB120283FB02032249D017C0EB2340A3
:102A4000214B01FB10209842C8BF081A80FB001ED2
:102A5000090C41EA0E414FEA2E4E4FEA0E1C0B01C3
:102A60005B184CEA117C4EEB0C0C4FEA0C1C4CEA48
:102A7000137C1B015B184EEB0C0CDB184CEB0C0CA5
:102A80001B0C43EA0C43A3F52A532A3BDC1703FB38
:102A90000EFE01FB04EEA3FB01318E441B0C43EA46
:102AA0000E4303F5803383FB0031064C180C40EADB
:102AB0000140A242C8BF404210BD00BF83CC7C5140
:102AC0007E4806003F2403001F920100002806DD17
:102AD000043A02EB800042F8041F8242FBD17047A7
:102AE0000020704790F8612090F86000101A70473D
:102AF00090F8603090F861209A4205D95A1C03443E
:102B000080F86020187E70474FF0FF30704700BF9C
:102B100090F8603090F861209A4286BFC018007E1D
:102B20004FF0FF30704700BF704700BFB0F8AE30C5
:102B30002BB190F8AD30482B03D90123436000201E
:102B40007047C218013380F8AD30012082F863105D
:102B5000704700BF38B5B0F8AE40A4B190F8AD30C2
:102B6000C3F14904A24284BF01224260054698BFD6
:102B7000144663301844224608F056FA95F8AD30F2
:102B8000234485F8AD30204638BD00BF70B5164CE3
:102B90002369DB7813F0200514D094F8B0300133AA
:102BA000DBB2012B84F8B03002D894F8AF3043B9CF
:102BB000636994F8B1201344BDE87040187A08F0B6
:102BC000F5BB70BD636994F8B1201344187A08F01E
:102BD000EDFBD4F8B830002BF3D094F8610084F802
:102BE0006050BDE8704018470899FF1F70B5164C3B
:102BF0002369DB7813F0200514D094F8B03001334A
:102C0000DBB2012B84F8B03002D894F8AF3043B96E
:102C1000636994F8B1201344BDE87040187A08F055
:102C2000C5BB70BD636994F8B1201344187A08F0ED
:102C3000BDFBD4F8B830002BF3D094F8610084F8D1
:102C40006050BDE8704018474C98FF1F10B50369ED
:102C5000D978CAB2C906044622D510215006D970C7
:102C60001DD512F0040250D03D49D4F8B420002301
:102C70000B7084F8AD30002A5BD0904794F8AD30EB
:102C8000002B56D02369D0229A70236994F86320D0
:102C90001A712369012284F8AC200222DA7010BD77
:102CA0005106DED4997811F0100117D12D4A80F821
:102CB000B01090424FD02C4A904241D094F861100D
:102CC0001A794729D2B2E8D8254800780028E4D0FC
:102CD000481C214484F861000A76DEE712F0010204
:102CE00020D190F8AC1090F8AD00884281BF4A1C0A
:102CF000091984F8AC2091F863201A712369D02255
:102D00009A7023690222DA70C9E7236984F8612086
:102D1000C0219970124A2369012111700222187989
:102D2000DA70BCE7C0229A7003691A790222DA705D
:102D3000B5E70122002384F8AD2084F86330A1E7D1
:102D4000436990F8B120094913440322187A08F026
:102D5000B9FA2369B2E7436990F8B1200449F3E76F
:102D600064A5FF1F4C98FF1F0899FF1F8D2B0000C3
:102D7000ED2B00000148FFF769BF00BF4C98FF1F13
:102D80000148FFF763BF00BF0899FF1F90F81CC000
:102D90004160BCF1020FC26001D18368184707F09F
:102DA000FDBD00BF844600682DE9F0410C46114688
:102DB0001A46C36813F0807F7A4B03604BD1D30768
:102DC00000F1D1809CF82460174646EA0626002FC1
:102DD00000F0B78034B12678637846EA032676BAE5
:102DE0000234B6B2DCF8043093F808E0022F0EF19A
:102DF000FF3E4FEA0E3E0CBF46F0805346F01043B4
:102E00001FFA8EFE4363023F0AE011B105F8010B81
:102E10002946013A03F47043734517D9DCF80000E2
:102E2000C36A13F0F00FF5D012F0010F806B0D465E
:102E3000EBD1C0F3072819B105F8028B4870294679
:102E400003F470437345A2F10202E7D8002F78D053
:102E5000DCF80000BEE7D3075FD49CF82470164668
:102E6000BFB2002E45D024B1637814F8027B47EA44
:102E70000327DCF8043093F808E0022E0EF1FF3E41
:102E80004FEA0E3E0CBF47F0805347F010431FFA45
:102E90008EFE4363023E0AE011B105F8010B29469C
:102EA000013A03F47043734517D9DCF80000C36A94
:102EB00013F0F00FF5D012F0010F806B0D46EBD13F
:102EC00029B105F8020BC0F307204870294603F426
:102ED00070437345A2F10202E7D856B1DCF8000056
:102EE000C1E729B100F8023BC3F307234B70014649
:102EF000023A82B1DCF80030D86A10F0F00FF8D056
:102F0000D4079B6B0846ECD511B100F8013B014694
:102F1000013A002AEED1BDE8F08184B314F8013BF8
:102F2000012A18BF43F0004343639CF82470561EE7
:102F300096E7C3F3072419B100F8024B4B70014622
:102F4000023A002AE7D0DCF80030D86A10F0F00F1F
:102F5000F7D0D4079B6B0846EBD511B100F8013BC5
:102F60000146013AEDE79CB114F8013B012A18BF74
:102F700043F0004343639CF82460571E25E79CF808
:102F80002470012A1ABF47F0004343634763CEE72A
:102F90009CF82460012A1ABF46F00043436346634D
:102FA000EBE700BF00041F80436810B41C685A6838
:102FB0002168114302682160154C16491460D160E4
:102FC000154C164914611160417A154A5C180A3192
:102FD00094F824C053F8214002EBCC0149680C60FE
:102FE000017A5C1803EB810194F818C0CC6902EBFC
:102FF000CC0149680C60817A10BC581803EB81033E
:1030000090F83000596B02EBC002536819607047AA
:1030100001401F00011000380110007800001F80DF
:10302000789C020010B4426890F809C0104B944498
:1030300000219CF824C003EBCC0CDCF80440216098
:1030400090F808C094449CF818C003EBCC0CDCF852
:1030500004402160847A00682244064C92F83020B3
:1030600003EBC2035B681960046010BC704700BFCB
:10307000789C020001401F000BB1FFF793BE704720
:1030800070B4016B4A4A0979D177C16A097911771D
:10309000016B09791177826A03462AB34168C968CE
:1030A0008A4243D9C46A006B521A21689A620D6839
:1030B00003F12404A5424FF0010259D01C68E568D1
:1030C00015F0804F0D6829D12D780E6845F0004528
:1030D00001360E60656336490079C87612B1DB6A45
:1030E0001B79CB7670BC70470168324C406B0A6329
:1030F000CC62CC6824F08044CC6004682E492468FB
:103100004FF0030C8C4283F825C039D1037F426015
:10311000022BC26038D170BC836818472D880E68B6
:1031200045F0004502360E606563D4E7C16A096860
:10313000CC8B260402F1FF3031D4C0F30E00C883DB
:10314000CC8B186BA4B2CC820468E58B2D041ED402
:10315000C2F30E05E583E58BADB2E5820D68002470
:10316000013A9C6203F1240418BF0122A542A5D1B3
:103170001968CC6893F8244044F000444C63AAE7F3
:103180002346114670BC184770BC07F007BCE58B9E
:10319000C2F3080605F47E453543E583DBE7CC8BB7
:1031A000C0F3080004F47E442043C883C8E700BF8E
:1031B0000080004000000FFF8D2D000008B5024880
:1031C000FFF75EFF08BD00BFC499FF1F2DE9F04F58
:1031D000002183B0814607F009FA002800F035810C
:1031E00099F81C30B3B300F5827A031D0190D646DE
:1031F000B9F81E209ABB99F81C10022909D0013990
:10320000062900F2EF80DFE801F0D4ED0BBEA68ABC
:103210006F00B9F82C10A9F81E10002940F0D880D2
:103220004FF0040289F81C20D9F83020B9F82E108C
:10323000A9F81E1002F1404292FBF1F2C9F82420D5
:103240007345D5D3DDF8048048460022414607F097
:103250009FF9404603B0BDE8F04F07F06FB9013A5F
:10326000D9F820101FFA82F8D9F82420891301EB2D
:10327000624101EB624606EB624C0CEB624505EBEA
:10328000624000EB624707EB624404EB6242D3F812
:1032900000B0D3F804A031FB0BF136FB1BF6C1EAFA
:1032A00006463CFB0AFC35FB1AF5CCEA0545996855
:1032B00030FB01F037FB11F7C0EA0740D96834FB57
:1032C00001F432FB11F2C4EA02441E605D609860B2
:1032D000DC60D9F82020D9F82410A9F81E800A440F
:1032E0001033C9F82020ABE7B9F82820A9F81E2030
:1032F0000021C9F82010002A00F08C80013A4FF01C
:10330000010089F81C001FFA82F8C9F824100A4647
:103310000C460F4608460D468C460E46B7E7002180
:103320009E45DDF8048089F81C108DD908F2031041
:10333000C01A03F1100220F00F002033034442F8BA
:10334000101C42F80C1C42F8081C42F8041C1032F5
:103350009342F4D178E7D9F82010D9F824208913C2
:1033600001EB624101EB624606EB624C0CEB6245FD
:1033700005EB624000EB624707EB624404EB6242FC
:103380004FF6FE7883E7D9F83010C9F820104FF0D7
:103390000502891389F81C200022C9F824200C4654
:1033A0000A460F4608460D468C460E464FF6FE78F6
:1033B0006DE74FF0020289F81C20B9F82A20A9F81D
:1033C0001E204FF08041B1FBF2F2C9F8242037E70C
:1033D000C9F824204FF08042C9F82020032289F840
:1033E0001C202DE7D9F82010D9F82420891301EBEF
:1033F000624101EB624606EB624C0CEB624505EB69
:10340000624000EB624707EB624404EB62424FF616
:10341000FF783CE74FF0020289F81C204FF0804112
:10342000B9F82A20B1FBF2F1C9F82410491401EBD4
:103430008100013A00EB41041FFA82F84E0001EBD3
:10344000410C8D000F180A1921E703B0BDE8F08F79
:1034500072B6037F012B01D9C28EA2B9038DC3833B
:103460000022026253B9428DC28302214FF0804391
:103470000177B3FBF2F3436262B67047012303772F
:10348000426262B67047072BF6D0036AC2830721F7
:103490005B42017793FBF2F3436262B6704700BF71
:1034A00010B5044607F060FA204610BD024A0349F1
:1034B000034808F08FBE00BF2498FF1FA13400000E
:1034C00068A5FF1F38B5074D074C08482A46214616
:1034D00008F080FE2A4621460548BDE8384008F03D
:1034E00079BE00BF2498FF1FA134000070A5FF1F04
:1034F00078A5FF1F024A0349034808F06BBE00BFCE
:103500002498FF1FA134000080A5FF1F024A034931
:10351000034808F05FBE00BF2498FF1FA1340000DD
:1035200088A5FF1F024A0349034808F053BE00BFA5
:103530002498FF1FA134000090A5FF1F024A0349F1
:10354000034808F047BE00BF2498FF1FA1340000C5
:1035500098A5FF1F024A0349034808F03BBE00BF7D
:103560002498FF1FA1340000A0A5FF1F024A0349B1
:10357000034808F02FBE00BF2498FF1FA1340000AD
:10358000A8A5FF1FF8B5002705463C46B4B3394649
:10359000284607F01FF808B3BB1D04F1040E55F8C8
:1035A0002360B6F5803F00F1040C47D000F582712E
:1035B0005CF8042B36FB02F336FB12F203F30F0325
:1035C00002F30F02C3EA0243DEF8002093FA12F37B
:1035D0008C454EF8043BEBD106F0B0FF0137042FC9
:1035E000D4D128462146002206F0D2FF2046BDE86D
:1035F000F84006F0A3BF0137042F3BD039462846D8
:1036000006F0F4FF04460028F5D0BB1D55F8230052
:10361000B0F5803FE2D0211D04F582760B6830FBC7
:1036200003F230FB13F302F30F0203F30F03C2EABA
:10363000034341F8043BB142F0D1CFE700F10C0263
:1036400004F10C0300F5867C53F8081C52F8086C52
:1036500091FA16F143F8081C52F8046C53F8041C54
:1036600091FA16F10832944543F8041C03F108035B
:10367000EAD1B1E7F8BD00BF024A0349034808F0A8
:10368000A9BD00BF2498FF1FA1340000B0A5FF1FF3
:1036900010B5002106F09EFF80B1034672B6094ABC
:1036A000106860B108490C6834B114600B6062B6F0
:1036B000BDE8104006F042BF0B6062B610BD13605B
:1036C00062B610BDB8A5FF1FBCA5FF1F10B51A4BF1
:1036D0001A481A681A4912681B791A4CC3778A4229
:1036E000206836BF0A46A1F5807202F58071D8B114
:1036F00000F1040C3CF9023B03F500431B1122F8D6
:10370000023B9142F6D806F019FF0F4B00221968D0
:1037100021601A600D4B1B782BB14FF0E0234FF066
:103720008042C3F8082210BD4FF4006322F8023B28
:103730009142FBD8EEE700BFC4A5FF1F0080004008
:10374000408FFF1FB8A5FF1FBCA5FF1FC0A5FF1F0F
:1037500070B501213C483D4D07F0A8F83C4AD36ABA
:10376000802143F48053D362002485F8211040F671
:1037700008062C800120083407F02AFFA3B2B342C8
:1037800024B2F6D1324BDB6B5B0205D5314A1168AE
:1037900048F6A2738B4348D02D492E4BCA6B2E4856
:1037A00042F480020124CA63DC6048F6A37140F24F
:1037B0003F4440F201125C60196018601A61224CAB
:1037C000264823682649D860264A204819605A604E
:1037D000186100224FF4807102250620D9829A8256
:1037E000D9839A6198839D60237903F1804303F51F
:1037F0000433B0211A70197007F004F822791A49BD
:103800001A4C5311207003F13823CA7602F11000CC
:103810001749184C41F820404033AB4002F01F02DA
:10382000012101FA02F21A6070BD516840F23F4373
:103830009942B1D1D368012BAED1126940F2011384
:103840009A42A9D1BBE700BFC4A5FF1F00C00C402E
:103850000080044000600340A28F010000FEFFFFD3
:10386000408EFF1F0200010100800040C0A5FF1F25
:103870000092FF1FCD360000024A0349034808F0BA
:10388000A9BC00BF2498FF1FA1340000C4A5FF1FDE
:10389000024A0349034808F09DBC00BF2498FF1F5B
:1038A000A1340000CCA5FF1F024A0349034808F0D9
:1038B00091BC00BF2498FF1FA1340000D4A5FF1FB6
:1038C000024A0349034808F085BC00BF2498FF1F43
:1038D000A1340000DCA5FF1F024A0349034808F099
:1038E00079BC00BF2498FF1FA1340000E4A5FF1F8E
:1038F000024A0349034808F06DBC00BF2498FF1F2B
:10390000A1340000ECA5FF1F024A0349034808F058
:1039100061BC00BF2498FF1FA1340000F4A5FF1F65
:1039200090F8263003B970472DE9F04F85B08246F4
:1039300006F0AEFD0290002800F0FD809AF82610F7
:10394000DAF81820BAF92430C8B28129019000F0C1
:10395000478100F2B180022800F00C8103286AD16F
:103960000298A849CDF80CA000F1240C02F1200027
:103970001F4652F8043BDDF804B0DCB2C3F307463F
:1039800031F9145031F916602CF81A5CC3F307248E
:1039900017FB0B5B1B0E31F9144031F913302CF877
:1039A000124C05EB45094FEAAB0B2CF820BC07EB9A
:1039B000050B4F4404EB440806EB460EBF1006EB24
:1039C000030AA1442CF80A6C2CF81C7C2F194544DE
:1039D000B04426447444A4109E442CF80C4C0AEBCA
:1039E00043044FEA6B0B4FEAA9097F10AD104FEA71
:1039F000A80876104FEAAE0E4FEA6A0AA410824277
:103A00000CF1200C2CF8223C2CF83EBC2CF8389CF5
:103A10002CF8367C2CF8345C2CF8308C2CF82E6C7E
:103A20002CF828EC2CF826AC2CF8244CA0D1DDF88E
:103A30000CA0202225E0012877D1029901F10C0584
:103A4000704902F1800052F8044BE6B2824231F82C
:103A5000166025F8086CC4F3072605F1080531F84F
:103A6000166025F80E6CC4F307464FEA146431F86B
:103A7000166031F8144025F80C6C25F80A4CE2D198
:103A80008022AAF82430DAF82030029CCAF8180004
:103A900093428CBF9B1A002350468CBFCAF820303B
:103AA0008AF826300022214606F072FD204605B035
:103AB000BDE8F04F06F042BD019982293ED083292E
:103AC00033D1029902F140001431032752F8044B1C
:103AD00026B206EB460E1D4606EB244C23140EEBD5
:103AE0002444A41021F8084C15FB0764A410AE442C
:103AF00021F8104C35440CEB43044FEAAE0E6D1028
:103B00004FEA6C0CA410824201F1100121F81A6CEA
:103B100021F8123C21F81CEC21F81E5C21F816CC8F
:103B200021F8144CD2D12022ABE7029806F006FD12
:103B300000238AF8263005B0BDE8F08F029902F123
:103B4000800001F10C0452F8041B0DB25E190B1435
:103B500005EB214176104910824224F8086C24F8C4
:103B6000065C24F8041C24F8023C04F10804EAD1A1
:103B7000402286E7029901F11404224902F1400033
:103B800052F8047BFDB2103431F9155024F81E5C54
:103B90002B445B1024F8203CC7F30723824231F901
:103BA000136024F81A6CC7F3074335444FEA1767CC
:103BB0004FEA650524F81C5C31F9135031F91730D0
:103BC00024F8165C2E441D444FEA66064FEA65054C
:103BD00024F8186C24F8145C24F8123CD0D1C7E700
:103BE000029902F5807001F1080452F8041B24F8D0
:103BF000041C82424FEA114124F8021C04F104041F
:103C0000F3D13DE7B0950200002280F8262051F85C
:103C1000043B828423F07F421B0E8161C1610262FA
:103C200080F82630704700BF704700BF036D0BB1AE
:103C300001207047406D003818BF0120704700BF59
:103C400010B50446806D18B108F0A2FF0023A365EB
:103C5000236D2BB104F11800BDE8104005F05EB9EA
:103C6000636D002BF6D110BD10B50446806D00B118
:103C700010BD4FF4807008F083FFA065B0B1236DD4
:103C8000002202703BB101464FF48072184604F0E6
:103C90006DFEA06D10BD636D002BE9D001464FF4A1
:103CA0008072184602F0C4FBA06D10BD0148A065EB
:103CB00010BD00BFFCA5FF1F38B5056D6DB10BB180
:103CC000002038BD1146284603F0AEFB0028F7D08F
:103CD0002846BDE8384003F03FBD446D002CEFD0CE
:103CE000204601F06BF80028EAD02046BDE83840B5
:103CF00001F086BE8A79A2F150031B0620D4F0B5EC
:103D00004B79046D0D798E784F780978013385B041
:103D100002F26C72DBB244B103918DE8E000042141
:103D2000204603F0ADFC05B0F0BD406D0028FAD090
:103D300003918DE8E000042101F0B2FD05B0F0BD73
:103D40000020704710B50446006D80B1037813F071
:103D5000700F00D110BD002103F066FB606D0028DC
:103D6000F8D0BDE810400022002301F027B8606DB4
:103D70000028EFD090F8313013F0500FEAD0BDE8B2
:103D800010400022002301F019B800BF10B503460F
:103D9000006D82B00C4620B30DF1060201A902F0BD
:103DA0006BFF38B3BDF80430BDF8062053EA0201BA
:103DB00020D0C2F3451C02F01F00D20AC3F3431106
:103DC0004000A2705A0A0139207003F01F0302F567
:103DD000EA62012084F801C023716171A27102B00E
:103DE00010BD586D30B10DF1060201A900F080FE42
:103DF0000028D7D1002002B010BD00BF10B5034687
:103E0000006D82B00C4620B30DF1060201A902F04C
:103E100023FF38B3BDF80430BDF8062053EA020191
:103E200020D0C2F3451C02F01F00D20AC3F3431195
:103E30004000A2705A0A0139207003F01F0302F5F6
:103E4000EA62012084F801C023716171A27102B09D
:103E500010BD586D30B10DF1060201A900F036FE1B
:103E60000028D7D1002002B010BD00BF0369B3B154
:103E700010B41C680B48E46884420CD1186D10B172
:103E800010BC03F0A3BC586D10B110BC01F02CBEE7
:103E9000002010BC70471846234610BC184700206D
:103EA000704700BF65410000006990B10368154A82
:103EB0001B69934225D1036D63B1187810F0080097
:103EC00007D0D8695B69C01A48BF6FF000407047DF
:103ED00018467047436D002BFAD093F8310010F06C
:103EE0000800F6D0186919685A695B68401A62EBD5
:103EF0000303B0F1004F73F10003EAD36FF0004009
:103F0000704718475D420000036963B11A680749AA
:103F100092698A4208D1186D08B103F0ABBB586DA5
:103F200008B101F075BB704718461047E540000026
:103F3000036973B11A68084952698A4207D1186D3A
:103F400008B103F035B9586D18B100F01FBF18461D
:103F500010474FF0FF3070473D400000036D13B134
:103F6000586900217047436D13B1D3E900017047D0
:103F700018461946704700BF036D13B1D869002178
:103F80007047436D13B1D3E90401704718461946D1
:103F9000704700BFF0B595B00022234F01924FF457
:103FA0007A741831054604A8CDE9122202948DF8DE
:103FB0000C20009705F01EF8129B002B29D05C20E6
:103FC00007F04CF9019BC360029B03619DF80C3024
:103FD0000375164B03600026154B8360044646604C
:103FE00004A9183004F06CFF4FF47A73AB60636877
:103FF000104AA7600133A6656E602A602E732C619B
:1040000063600D4B009304A804F088FF284615B0A8
:10401000F0BD139B002BD2D1064A6B60AC602B73B2
:104020002A602B61EDE700BF309802008098020003
:10403000E8970200549802000C9802000346006DB5
:1040400008B103F0B5B8586D08B100F09FBE4FF04D
:10405000FF3070470346806C08B103F0A9B8D86CF4
:1040600008B100F093BE4FF0FF307047036D33B1DD
:104070001B7813F0700F14BF012000207047406DB3
:1040800030B190F8313013F0500F14BF01200020F0
:10409000704700BF0346006D08B102F0BBBF586D0A
:1040A00008B100F09FBD4FF0FF30704700B50346E8
:1040B000806C83B058B101220DF1070102F0AAFF14
:1040C00001280CD19DF8070003B05DF804FBD86C03
:1040D00028B101220DF1070100F084FDF0E74FF057
:1040E000FF30F1E70346006D08B103F0C3BA586D25
:1040F00008B101F08DBA70470346806C08B103F037
:10410000B9BAD86C08B101F083BA7047036923B318
:1041100010B51968124A8C68944282B014D1186D97
:1041200048B101220DF1070102F074FF90B19DF832
:10413000070002B010BD586D0028F8D001220DF123
:10414000070100F04FFDF1E701220DF107011846CC
:10415000A047EBE74FF0FF30EBE74FF0FF30704741
:10416000954000000346006D08B103F02FBB586D69
:1041700008B101F0B9BC70470346806C08B103F088
:1041800025BBD86C08B101F0AFBC704700B5034641
:1041900083B0806C8DF8071038B101220DF1070152
:1041A00003F014FB03B05DF804FBD86C0028F9D0D1
:1041B00001220DF1070101F097FC03B05DF804FB4B
:1041C0008A79A2F150031B0620D4F0B54B79046D17
:1041D0000D798E784F780978013385B002F26C72D0
:1041E000DBB244B103918DE8E0000221204603F0E8
:1041F00047FA05B0F0BD406D0028FAD003918DE874
:10420000E000022101F04CFB05B0F0BD002070473A
:10421000836C53B1187810F008000DD0D8695B6931
:10422000C01A48BF6FF000407047C36CA3B193F849
:10423000310010F0080000D17047186919685A69F8
:104240005B68401A62EB0303B0F1004F73F10003A7
:10425000F2D36FF0004070471846EDE7036D53B19D
:10426000187810F008000DD0D8695B69C01A48BFF3
:104270006FF000407047436DA3B193F8310010F028
:10428000080000D17047186919685A695B68401ABC
:1042900062EB0303B0F1004F73F10003F2D36FF050
:1042A000004070471846EDE710B5036982B08DF8FD
:1042B0000710BBB11968104ACC68944215D1186D2B
:1042C00030B101220DF1070103F080FA02B010BDF8
:1042D000586D0028FAD001220DF1070101F004FC0D
:1042E00002B010BD184602B010BD01220DF1070149
:1042F0001846A04702B010BD6541000038B504461D
:10430000806D0C4B236018B108F042FC0023A365BC
:10431000236D04F118054BB1284604F0FFFD064B50
:10432000A360284604F0FAFD204638BD636D002BDB
:10433000F2D1F4E7809802000C98020038B50446E8
:10434000806D0E4B236018B108F022FC0023A3659A
:10435000236D04F118056BB1284604F0DFFD084B0E
:10436000A360284604F0DAFD20465C2106F078FFC1
:10437000204638BD636D002BEED1F0E78098020037
:104380000C98020030B4029C11469C4634B1012CBA
:104390001CD0022C0ED0002030BC7047056DF5B14A
:1043A0004FF0FF33934274EB0C04F4D3284630BC37
:1043B00003F03AB8026D0AB3D36959184CF10003FF
:1043C000002BE8D130BC104603F02EB8026D62B16C
:1043D000536959184CF10003002BDCD1F2E7406D12
:1043E0000028D8D030BC00F0E9BC406D0028D2D005
:1043F000D0E900238A184CEB0303F3E7406D002853
:10440000C9D0D0E904238A1830BC4CEB030300F078
:10441000D5BC00BF70B50569234B03600446002D71
:1044200032D06E68013E6E6076BB2B681F4ADB6A35
:1044300093422FD1A86D10B108F0AAFBAE652B6D89
:1044400023B305F1180004F069FD2569E5B12B6877
:10445000174A5B68934224D1A86D164B2B6018B1A4
:1044600008F096FB0023AB652B6D05F11806A3B190
:10447000304604F053FD104BAB60304604F04EFD67
:104480005C21284606F0ECFE204670BD6B6D002BCB
:10449000D7D1DAE728469847D7E76B6D002BE7D1ED
:1044A000E9E728469847EFE754980200413C0000AE
:1044B0003D430000809802000C98020070B5056929
:1044C000254B03600446002D32D06E68013E6E60BD
:1044D00076BB2B68214ADB6A934233D1A86D10B1B9
:1044E00008F056FBAE652B6D43B305F1180004F0E0
:1044F00015FD2569E5B12B68194A5B68934228D1FF
:10450000A86D184B2B6018B108F042FB0023AB6577
:104510002B6D05F11806C3B1304604F0FFFC124BB9
:10452000AB60304604F0FAFC5C21284606F098FEA9
:104530002046142106F094FE204670BD6B6D002BC2
:10454000D3D1D6E728469847D3E76B6D002BE3D14C
:10455000E5E728469847EBE754980200413C000005
:104560003D430000809802000C980200704700BF95
:10457000F0B5012B95B0054638D0022B40F2022051
:104580000CBF034600230431684604F0E3FD129B90
:10459000002B34D05C2006F061FE1F4B0026C0E9E2
:1045A0000036019BC3601D4B8360029B036104AF17
:1045B0009DF80C30037504463946183004F080FC31
:1045C000174BA3604FF47A73AB606368154AA66516
:1045D00001336E602A602E732C616360124B00936E
:1045E000384604F09BFC284615B0F0BD44F2022387
:1045F0000431684604F0AEFD129B002BCAD1139B18
:10460000002BC7D1074A6B604FF47A71A9602B73F6
:104610002A602B6104AFE1E780980200E89702006E
:1046200030980200549802000C98020010B5D0F89F
:1046300084448EB00A4644B1002321466846009364
:1046400002F098FC80B90EB010BDD0F8881441B1CA
:10465000234668460C9400F053FE50B900200EB07B
:1046600010BD08460EB010BD684602F095FE0EB0B3
:1046700010BD684600F002FF0028EFD0E3E700BF5E
:1046800070B5D0F884548EB016465DB105F58965D5
:1046900000230A4668462946009302F0EDFB90B9D4
:1046A0000EB070BDD0F888040028F9D000F58964F8
:1046B0000A462B46214668460C9500F0B9FD48B9DC
:1046C00000200EB070BD32462946684602F0A8FDB3
:1046D0000EB070BD32462146684601F021F8002830
:1046E000EED0DDE710B5D0F884448EB00A464CB168
:1046F0000020009001232146684602F03BFC80B96F
:104700000EB010BDD0F8881441B1012368460C9456
:1047100000F0F6FD50B900200EB010BD08460EB0F6
:1047200010BD684603F0CEFC0EB010BD684600F028
:104730004BFE0028EFD0E3E730B5D0F884448FB0CB
:104740000A464CB10025012304F5896168460095AD
:1047500002F01EFB0FB030BDD0F888040028F9D05D
:1047600000F58961012368460C9401F047F80FB009
:1047700030BD00BF10B5D0F884448EB00A463CB1BD
:10478000002321466846009302F0F4FB0EB010BDF2
:10479000D0F8881431B1234668460C9400F0B0FD7F
:1047A0000EB010BD08460EB010BD00BF70B5054676
:1047B00090F8C00408B9014670BDD5F884040028FB
:1047C00038D0C469D5F89034013C1BB31A7E0ABBBB
:1047D0000121184605F0DAFA88B1D5F884040028DA
:1047E0003ED1D5F8880408B102F098F80646D5F80D
:1047F000900420B1002105F0C9FA00B1A41BD5F83E
:10480000843473B19B794FF40071994089B2A1FB54
:10481000040170BD04F006FAD5F88434241A002B84
:10482000F0D1D5F888040028C5D0D0F83C14A4FBFA
:10483000010170BDD5F88804D5F8903450B1D0F896
:10484000304423B11A7E002AC2D00028B3D002F02F
:1048500065F8E1E70BB10446F4E718460146ABE71B
:1048600004F0E0F90646C2E72DE9F043D0F8905491
:104870008DB04DB198462B680446DB6928469847B1
:10488000B0F5405F064604D8002630460DB0BDE8BE
:10489000F0834FF4007008F073F907460028F3D056
:1048A0000DF10409B6F1806F024643462946484699
:1048B00016D901F017FB0646384608F069F9002EB4
:1048C000E2D02B6828461B6A984794F8B034FF2B37
:1048D0000AD100233046C4F890340DB0BDE8F0830F
:1048E00003F004FF0646E7E7D4F8B434B4F8B02484
:1048F0000293D4F8B834ADF80420039304F294453D
:1049000099E80E00284605F02DFA94F8A134C4F871
:104910009054002BB9D101231A462946201D04F0DA
:10492000A5FBB2E790F8C03463B1D0F8843463B12A
:104930009A79D9694FF40070904080B20139A0FB98
:1049400001017047184601467047D0F888040028D6
:10495000F9D0D0F83C14D0F83004A1FB0001704726
:1049600070B5D0F8903484B00446ABB190F8C05420
:1049700090F8C2045DB1212820D806F0DFFD051EA5
:1049800018BF0125284684F8C05404B070BD212802
:1049900008D806F0D3FD28B90025284684F8C0546D
:1049A00004B070BD94F8B034FF2B12D10023284618
:1049B000C4F8903484F8C05404B070BD6A460A212B
:1049C000184604F071FE0546284684F8C05404B029
:1049D00070BDD4F8B424D4F8B834B4F8B014029349
:1049E000ADF80010019204F294466B460ECB3046AF
:1049F00005F0B8F994F8A134C4F89064002BCCD138
:104A000001231A463146201D04F030FB0546C4E759
:104A100010B51448144C1549154A04604FF0290C80
:104A2000002380F8A1C44FF47F4E4FF0FF0C80F8B4
:104A3000A53480F8BC34A0F8C0E480F8C2C4C0F843
:104A40009C14C0F89424BDE810400A4A0A49C0F8F2
:104A50008434C0F88834C0F8903480F8AC3407F05F
:104A6000B9BB00BF00A6FF1FDC980200011001388F
:104A7000D49902002498FF1F6D45000070B500F125
:104A800024038C460546164693E8070084B001AC23
:104A900084E80700286A4FEA4C12214601F05EFEC6
:104AA000012806D1286A3246214601F03BFE04B0B7
:104AB00070BD002004B070BD10B5044600F0A8FD24
:104AC000002384F8313084F8333010BD38B51346F4
:104AD0000D46002200F12401006A1C4601F022FE6E
:104AE00020B143892B8003892380012038BD00BF7A
:104AF00038B513460D46002200F12401006A1C4619
:104B000001F010FE20B1C3892B808389238001200E
:104B100038BD00BF38B590F831300BB1002038BD3A
:104B200004460D463822194608F02EFB012040238A
:104B300084F8313084F83300256238BD70B40C78C5
:104B4000202C0D46114603D115F8014F202CFBD027
:104B50000D608D602C783CB3214E0CE0A4F1220C4A
:104B60005FFA8CFC26FA0CFC1CF0010F10D12E2CE5
:104B700016D12C78C4B12F2C24D03C2C05F1010582
:104B800009D8212CEAD804F1FF3CBCF11E0F15D83E
:104B9000002070BC70475C2CFAD009D97C2CF7D06F
:104BA0008D602C78002CE6D11D6070BC01F0A4BC97
:104BB0003E3C012CF4D8002070BC7047202CD8D08B
:104BC0008D60EEE72C46254614F801CBBCF1200F92
:104BD000F9D0BCF12F0FF6D01D6070BC01F08CBC79
:104BE000012100052DE9F04790F83330DC0782B051
:104BF00005466DD558060F46904640F1B580D5E97B
:104C00000023D5E9041018EB020443F10003A1428C
:104C100070EB0303C0F0AE80B8F1000F54D0D5E9BB
:104C200000324646D5F82090D9F838441C40C4F3E9
:104C3000080A002C57D1134377D195F831305A0622
:104C40004CBFD9F83414E969A96199F84534D9F809
:104C50002C24023999401144B6F5007F50D3D9F87D
:104C60001C228A424CD0B6F5806F65D34FF0010A02
:104C70000AFA03FAAAEB040A730A9A4528BF9A466D
:104C80008A424FEA4A240AD30AEB01039A4206D227
:104C900009F50470019105F05DF90199C0B1D9F8E9
:104CA0001402D0F800C05346DCF814903A46C847C6
:104CB00070B12346D5E900125B1842F10002361BA1
:104CC000C5E900322744ADD1404602B0BDE8F087C7
:104CD00095F832304FF0FF3043F0020385F8323060
:104CE00002B0BDE8F087AA6999F84534D9F82C04D8
:104CF000911E9940640A01442144BAF1000FABD0DF
:104D0000CAF50074B4424FF0000209F5047028BFE0
:104D1000344605F047F90028DAD000EB0A012246B4
:104D2000384606F081F92346C4E795F83330A9697F
:104D30005B060DD5013187E7D9F8140203683A46BE
:104D40001B6998470028C3D04FF400731C46B1E795
:104D500005F11802484601F043FD0028B8DB0CD0ED
:104D6000A969D5F8209070E795F8313019077FF5DB
:104D700053AF44E7A1EB02084EE795F8313013F04A
:104D8000500FA5D0A8EB060840469EE7F0B583B0CB
:104D900001220DF107010446D0E900678569FFF79C
:104DA00021FF012808BF9DF80700A56118BF4FF03B
:104DB000FF30C4E9006703B0F0BD00BF2DE9F84F34
:104DC00090F83110D0F818800446002950D01646CB
:104DD000D0E9002C9C4508BFB2421F4658D056EA85
:104DE00007034AD0080704D5D4E90403B042BB4105
:104DF0003ED3D4F8209099F845340933751EDBB2C0
:104E000047F1FF3AC3F120000AFA00FBDD40A3F1AD
:104E1000200E2AFA0EFA45EA0B0545EA0A0594F82F
:104E200033A01AF0400F2FD112F1FF3A2AFA03F300
:104E30004CF1FF3A0AFA00F003432AFA0EFA43EA69
:104E40000A039D4202D352EA0C0C24D14B064CBFFC
:104E5000D9F83434E369A36104F118094A4675B1FD
:104E6000A169206A01F0BCFC002805F1FF35F5DCE2
:104E7000C4F818800020BDE8F88F00238361C4E9DE
:104E800000670120BDE8F88FE3692B44A361F6E7D2
:104E90000120BDE8F88FED1ADEE700BF2DE9F04FE5
:104EA000064690F831008FB0002840F0D8801746B1
:104EB00091F8312012F0500F8B4600F0D08003F0B3
:104EC0000302032A9A4600F0CA80013203F0080167
:104ED00042EA01030293002F00F0CA803A6902F10E
:104EE0000E08A84AA2FB0828DBE900214FEAD808EF
:104EF00008F102080A435FFA88F805D0CBF81800D9
:104F000000210020CBE90001029B002443F0400374
:104F100025460393202206A95846FFF763FE00B3F7
:104F2000202840F09C809DF918209DF81830002A18
:104F3000C0F2A18034B9DBF80020A2F12009DBF82F
:104F40001820019244453CBF0134E4B2002B00F02C
:104F50001281202206A958460025FFF743FE0028AB
:104F6000DED11AF4007F7AD0029B9B0777D5002F01
:104F700075D0444517D2DDF804A0202206A9584672
:104F8000FFF730FE631C002861D0202867D12CB9C0
:104F9000DBF80020DBF818A0A2F12009DCB2A04564
:104FA000EBD8CDF804A03822002130469BF83340DE
:104FB00008F0EAF8DBF820303362019B73620823C3
:104FC00086F831303B68C6F82890C4F38014002579
:104FD00086F82C407B60BD81B8F1000F32D008F11B
:104FE000FF39DFF8A4A15FFA89F9AB4601225946DF
:104FF0003046FFF743FD044688B390F90020002AAD
:105000002DDB2022002108F0BFF8002D00F0BE802B
:10501000BBF1010F00F0D480C1232370A3461E34DE
:10502000BB8938461BB97A68BB689A4205D004F040
:10503000E1FF2BF8020FA345F2D101355FFA85FBA2
:10504000D845D3D8304600F0E3FA05460CE0584680
:10505000DBF8185000F00CFB002840F09080002591
:1050600086F8315086F8335028460FB0BDE8F08FEF
:105070004FF0030848E755BB444538BF0024852B53
:105080007FF448AF29463822304608F07DF89DF875
:105090001C209DF8193086F8303002F03703D20614
:1050A00058BF43F0080386F83130DBF80030DBF8F6
:1050B00020203262203BDBF818207262B3629BF83A
:1050C0003330C3F3801386F82C30012522E7C02B40
:1050D00028D0C12B7FF43DAF3A4606A9304601F0F7
:1050E00081F9E8B1BB89DBB9BA687B689A4217D10C
:1050F0001AF4006FB3D11AF4884F6FD196F8333099
:105100009C076BD41AF4806FA9D11AF4804FABD0EE
:10511000D6E904233046FFF751FE0028A4D19EE7CC
:105120000546F7E6029B86F833309DF819309B0759
:1051300044BF039B86F833300B9BF361DDE9082302
:10514000C6E90423DDE90C23C6E90223002FCFD0F2
:105150004FF000033A69BB819DF81B3039687960D4
:105160009A427FF4F6AEBD8ABDF81C30ED1AB5FA4E
:1051700085F56D09CEE6002F7FF4F3AE6FE7CBF82F
:1051800018500CE789888888D0AAFF1F85232370D0
:1051900086F8309084F80190DAF80030002B41D086
:1051A0000DF113020DF1160105A89847BDF8143052
:1051B0006381BDF8163023819DF8133023753CE7D9
:1051C000C0232370029B84F801B063F07F0386F84C
:1051D00033303B69E370BB8AA3802EE796F8313009
:1051E000D8063FF53CAF13F001027FF438AF1AF454
:1051F000806F8AD096F8331089077FF530AF002B87
:105200003FF42DAFD6E900310B4304D0002000213C
:10521000C6E90001B261304600F0F2FB00283FF41D
:105220001EAF21E745F621436381E381638204E7F2
:105230002DE9F043044697B0994694F83130019235
:1052400000201490ADF814006BBB91F8313013F0CE
:10525000500F0E4627D013782F2B154627D04FF02E
:10526000000813E0019D2F78A7B3FFF717FE06464D
:105270003422214608A8B6B105F0D6FE204600F03B
:10528000C7F908AE84F8318084F83380294601AB31
:1052900002AA2046FFF752FC0546002302AA314627
:1052A0002046002DDED1002017B0BDE8F08315F8B0
:1052B000011F2F29FBD0019599B938222046356A64
:1052C00007F062FF0120402384F83130256284F822
:1052D0003300E9E74B4602AAFFF7E0FD17B0BDE84F
:1052E000F0833822002108A8366A07F04DFF012319
:1052F0008DF85330402310968DF8513008AEAEE74C
:1053000019B101F58961FFF793BF0846704700BFE7
:1053100090F8313063B991F8313013F0500F07D065
:105320000B6813F01F0C03D113466246FFF7B6BD9E
:10533000002070478169F8B50446006A01B1013167
:10534000012201F00FF90128054632D90123014657
:105350001A46206A01F066F9064650B3A3695BB3AA
:1053600094F83320510612D5591CA94218D022F0C6
:105370004002E16984F8332005E0206A01F050FA28
:10538000B8B1A36939464F1C99423A46F5D3206A11
:105390004FF0FF32294601F043FA50B1A16911B92B
:1053A000A5613046F8BD206A2A4601F039FA002886
:1053B000F6D100263046F8BD94F8333043F0400370
:1053C00084F83330ECE700BF90F833309A0736D5D5
:1053D000C16970B50546A1B90024214607E00378EC
:1053E00003F07F03037095F830308B4229D30122FC
:1053F0002846FFF743FB0134E1B20028EFD100203B
:1054000070BD5B06006A34D5D5E9022490F84534B6
:105410000933013ADBB244F1FF34C3F1200CDA4026
:1054200004FA0CFC203B24FA03F342EA0C021A4370
:105430000132002301F0F6F80028CDD1DFE700208B
:1054400070472C6A002385F8313085F833302046C8
:1054500004F080FD0028D2D004F5047004F07AFD39
:105460000028CCD0D4F840040368BDE870401B6A23
:10547000184701F0F5F90028AED1C0E790F83130B7
:10548000DB0601D40020704710B5002288B000234D
:105490000446FFF793FC08E020281BD19DF900305B
:1054A0009DF80020002B15DB32B1202269462046F2
:1054B000FFF798FB0028EFD194F83330082243F02F
:1054C000020384F8312084F833302046FFF77CFF54
:1054D00008B010BD002008B010BD00BF2DE9F0419C
:1054E0004FF00008494F82B006464446414600222C
:1054F0003046FFF7C3FA054630B10078C02867D0C0
:10550000C1282BD0852809D096F8323043F001030A
:10551000002086F8323002B0BDE8F08196F83130D4
:1055200003F03703AB803B6883B10DF103020DF14B
:10553000060101A89847BDF80630AB812B82BDF863
:105540000430EB816B829DF803306B75326A92F800
:10555000103243F0010382F810322878014600220D
:1055600002E01F2A0FD8A95CE30343EA540311FAAF
:1055700083F3012A9CB202F10102F2D1852814BF03
:1055800002220422EFE796F8303008F101085FFAB2
:1055900088F18B42ABD2306A012206F1240101F07E
:1055A000C1F80028B0D0356A4480284604F0D2FC07
:1055B0000028A9D005F5047004F0CCFC0028A3D085
:1055C000D5F8400403681B6A98470028A3D19BE7DD
:1055D00096F8333013F0400F6B7814BF43F002039A
:1055E00003F0FD036B70D6E90423F069316A68614A
:1055F000C5E90223D6E90223C5E9062391F8103252
:1056000043F0010381F810322878A7E7D0AAFF1FE2
:1056100038B590F8313043B390F9332090F83330F7
:10562000002A04460CDB056A284604F093FC78B98E
:1056300094F8323043F0010384F83230002038BD52
:1056400003F07F0380F83330BDE83840FFF746BFF2
:1056500005F5047004F07EFC0028E9D0D5F840047C
:1056600003681B6A98470028E2D0012038BD00BFBC
:1056700070B590F831305A0605464CD480682B6AD4
:10568000D3F83C341844B0F1806F01D3002070BDD2
:105690002846FFF74FFE0028F8D0286AAE6990F838
:1056A0004524D0F82C34023E96401E440024311983
:1056B000052200F5047004F075FC01344FF400720B
:1056C00000210028E2D007F05FFD286A90F8452409
:1056D000012393409C42EAD395F831305B0615D400
:1056E00095F83330AA6863F07F0385F83330D0F83B
:1056F0003C142B69E8685218AA606A6940F10000FE
:105700005B1842F10002C5E90432E8602846BDE8B2
:105710007040FFF77DBF006A01F0A6F9AFE700BF58
:1057200030B5044690F831009DB0002510F0180FF8
:105730000C951A9503D00B6A206A984202D000207B
:105740001DB030BD40F601236846FFF771FD00280B
:10575000F5D0342221460EA805F066FC09AA07CA36
:1057600004F1240383E8070094F833309DF830C037
:1057700084F830C063F07F03204684F83330FFF7AD
:1057800047FF0028DBD0022208230EA815958DF8CC
:105790006B208DF86930FFF717FED1E738B591F827
:1057A000313013F0500F02D10025284638BD40F6A5
:1057B00002230446FFF772FB0028F5D0102384F87B
:1057C00031302046FFF754FF05460028ECD0A3698E
:1057D000E361002200232046FFF7F0FA94F831300D
:1057E000C12284F83320002BDFD0412384F83330EA
:1057F0002046BDE83840FFF771BE00BFF0B5044653
:1058000097B01F4694F8313001920020ADF8140093
:1058100014907BBB91F8313013F0500F0D4629D016
:1058200013782F2B114619D127E0019E3678002ED0
:1058300031D0FFF733FB034602AA294620461BB9A5
:10584000C7B1FFF7ABFFA8B12146342208A805F085
:10585000EBFB2046FFF730F9019908AD01AB02AA36
:105860002046FFF76BF90646002302AA2946204688
:10587000002EDAD1002017B0F0BD013101910B7874
:105880002F2BFAD0296A08A8FFF744F90028F1D095
:10589000019908ADE2E702AAFFF780FF17B0F0BD5B
:1058A0002DE9F04F90F8314083B024079DF8307017
:1058B0009DF834909DF838A09DF83C8057D5A2F211
:1058C000BC7294B27F2C52D85A1E0B2A01934ED828
:1058D0007A1E1E2A4BD8B9F1170F48D8BAF13B0FE0
:1058E00045D8B8F13B0F42D805460E46FFF790FE6B
:1058F00000283CD0019B47EA431747EA44244FEA7B
:10590000580747EA4A1747EAC9274FF0000A18F034
:105910000108A4B2BFB218BF4FF06408D346514685
:1059200006F0010900222846FFF7A8F8F8B101782F
:10593000852946D001F14003DBB2012B17D88C46F4
:10594000002203E01F2A16D810F802C04FEACB331A
:1059500043EA5B031CFA83F3012A1FFA83FB02F17B
:105960000102EFD1852914BF02220422ECE70020B6
:1059700003B0BDE8F08F95F830300AF1010A5FFA04
:105980008AF18B42CED2286A012205F1240100F06F
:10599000C9FE0028EBD02C6AA0F802B0204604F023
:1059A000D9FA0028E3D004F5047004F0D3FA0028F3
:1059B000DDD0D4F8400403681B6A03B0BDE8F04FA3
:1059C000184795F831302A6A03F03703838092F83C
:1059D000103243F0010382F81032B9F1000F01D008
:1059E00007824482B20703D580F81480078144817E
:1059F0007307017842BF80F815808781C4819EE7D4
:105A000090F833309A0764D570B5C56982B0044602
:105A1000002D35D013F0400635D0006AA26890F80A
:105A200045C4E1680CF1090C5FFA8CFC013A41F1C4
:105A3000FF31CCF1200E22FA0CF201FA0EFEACF18D
:105A4000200C21FA0CFC42EA0E02A16942EA0C0287
:105A5000013221B3013D6D1A01312A440191002A1E
:105A60002ED1D4E9000163F07F03C4E90201C4E947
:105A7000040184F833302046FFF7CAFD02B070BD40
:105A8000012002B070BD816961B90195C161206AD0
:105A9000294600F0E5FEC8B194F83330E1E70195FE
:105AA000E161DCE7006A019601AA00F099FE002896
:105AB0000CDB10D1019D002DE9D194F83330D0E7F3
:105AC0000199002300F0AEFD0028E5D1002002B0CE
:105AD00070BD00207047A169206A4FF0FF3200F0CE
