:1000000000800020BD010000F19D0000AD9D0000BA
:10001000AD9D0000AD9D0000AD9D0000AD9D0000B8
:10002000AD9D0000AD9D0000AD9D0000F19D000064
:10003000F19D0000AD9D0000419600004596000036
:10004000F19D0000F19D0000F19D0000F19D000078
:10005000F19D0000F19D0000F19D0000F19D000068
:10006000F19D0000F19D0000F19D0000F19D000058
:10007000F19D0000F19D0000F19D0000F19D000048
:10008000F19D0000F19D0000F19D0000F19D000038
:10009000F19D0000F19D0000F19D0000F19D000028
:1000A0002D1F0000391F0000F19D0000F19D000090
:1000B000F19D0000F19D0000F19D0000F19D000008
:1000C000F19D0000F19D0000F19D0000F19D0000F8
:1000D000F19D0000F19D0000F19D0000F19D0000E8
:1000E000F19D0000F19D0000F19D0000F19D0000D8
:1000F000F19D0000F19D0000F19D0000F19D0000C8
:10010000F19D0000F19D0000F19D0000F19D0000B7
:10011000F19D0000F19D0000F19D0000F19D0000A7
:10012000F19D0000F19D0000F19D0000F19D000097
:10013000F19D0000F19D0000F19D0000F19D000087
:10014000F19D0000F19D0000F19D0000F19D000077
:1001500065970000819700009D970000B997000007
:10016000F19D00004DA30000F19D0000F19D0000F5
:10017000F19D0000F19D0000F19D0000F19D000047
:10018000F19D0000F19D0000F19D0000F19D000037
:10019000F19D0000F19D0000F19D0000F19D000027
:1001A000F19D0000F19D0000F19D0000F19D000017
:1001B000F19D0000F19D000011940000574B4CF29E
:1001C000205210B5DA814DF62812DA8100BF00BF47
:1001D00009F012FE524B4FF010621A63514A9A63B3
:1001E000514ADA63514A136913F4807303D153619E
:1001F0004FF4A85313614E4B9A78110703D59A78A0
:1002000042F008029A704B4B4B482A221A704B4B13
:10021000DA1C121AC11E22F00302994288BF002282
:10022000474909F0EFFC474B4748DA1C121AC11E38
:1002300022F00302994288BF002200210CF0A8FAA4
:10024000424943484FF4DE7209F0DCFC414B424A1C
:10025000802103F8011B9342FBD14FF0E0233C4A7D
:10026000C3F8082D3D4B8A221A70A3F5805324222F
:100270005A70A0221A709A799207FCD59A79D406FE
:10028000FCD4374B9A7902F00C02082AFAD10322E7
:100290001A7140225A719A799006FCD5304A9379A6
:1002A0005906FCD51E4B2F4959640221996420211F
:1002B0001170917901F00C010C29FAD12A4A5A6087
:1002C0004FF0E023294A5A6100229A6107221A61FD
:1002D000274AC3F8202D62B609F0A6FE134B5B69CE
:1002E000DA0705D5234809F093FE234B234ADA6148
:1002F000234B1B785B0609D51F4C204BE2699A42C1
:1003000004D11C4809F084FE0023E36109F07AFD62
:100310000CF0EEFA09F06EFCFEE700BF002005408D
:1003200000800440823F04000100002B00D0034005
:1003300000D0074000E007402097FF1FC8A0FF1F24
:100340009CD500004CADFF1FC8A0FF1F000000009F
:100350000092FF1F00E400E05FE400E00050064070
:100360000040064000000301C0100500FF760100B8
:1003700000002020E506526A00E00340A5C3945A1D
:1003800000F00740FFFFFFFFFFFFFFFFFFFFFFFF42
:10039000FFFFFFFFFFFFFFFFFFFFFFFFFFFFFFFF6D
:1003A000FFFFFFFFFFFFFFFFFFFFFFFFFFFFFFFF5D
:1003B000FFFFFFFFFFFFFFFFFFFFFFFFFFFFFFFF4D
:1003C000FFFFFFFFFFFFFFFFFFFFFFFFFFFFFFFF3D
:1003D000FFFFFFFFFFFFFFFFFFFFFFFFFFFFFFFF2D
:1003E000FFFFFFFFFFFFFFFFFFFFFFFFFFFFFFFF1D
:1003F000FFFFFFFFFFFFFFFFFFFFFFFFFFFFFFFF0D
:10040000FFFFFFFFFFFFFFFFFFFFFFFFDEF9FFFF23
:100410000548064B1B1AD90F01EBA301491002D066
:10042000034B03B118477047C8A0FF1FC8A0FF1FA8
:100430000000000008B5054B1BB105490548AFF3A6
:100440000080BDE80840FFF7E3BF00BF00000000E8
:10045000C8A0FF1F94D5000038B50D1E044646DD28
:1004600047F2333085FB0003000C40EA034000F5FF
:10047000803080FB0403000C40EA034049F69A12E6
:1004800085FB022380EAE071A1EBE071120C42EAE5
:1004900003424FEA234CCB1702FB03F301FB0C335F
:1004A000A2FB01210B44120C42EA034212F58032F6
:1004B00008D0C117090441EA1041D31700040BF01A
:1004C000ADFC024643F6520385FB0353121B2D0C71
:1004D00045EA03451914D31705FB03F302FB013367
:1004E000A5FB025213442D0C45EA0345601938BDA3
:1004F00038B50C1E054647DD4FF4A03084FB0003E1
:10050000000C40EA034000F5803080FB0503000C3E
:1005100040EA03404BF2333284FB022380EAE0716D
:10052000A1EBE071120C42EA03424FEA234CCB17D5
:1005300002FB03F301FB0C33A2FB01210B44120C61
:1005400042EA034212F5803208D0C117090441EA99
:100550001041D31700040BF061FC0246E3179B0324
:10056000521B43EA9443C4F38F0444EA0344D11773
:1005700004FB01F11B1402FB0313A4FB024213440E
:10058000240C44EA0344281938BD00BF38B549108B
:10059000114B01F5A02181FB0313090C154651EA0B
:1005A0000342044605D0D317002001210BF036FC8E
:1005B00002464DB123793BB925714FF48030801A42
:1005C0000028206004DD38BD206825710028F6DC95
:1005D0000020206038BD00BF7C3E5B012DE9F0416A
:1005E000DDF81880089D06460C461046002B5FD0AB
:1005F00096F82070B7FA87F77F0986F82030F369FC
:1006000032690133F3611B0704BF1023F36104EB6C
:10061000000314BFD6F80880C6F8088093423361FF
:1006200004D1F368C6F80C8098452FD00BF0A0F9E0
:100630004FF05E510BF0F0F94FF064510BF0ECF914
:1006400021490BF0E9F901464FF080400AF0B0FB78
:1006500004EB08014B184FEAE17149411B0C43EAD6
:1006600001434FF08F4103F141040BF0D5F90BF03A
:10067000AFFB84FB00301B0C43EA00434CF63032E6
:1006800083FB02321B0C43EA0243336097B18123A0
:1006900085FB03321B0C43EA02430C48736083FB67
:1006A00000301B0CBDE8F04143EA004001F094BA71
:1006B0001F46A2E7D6E9002313445A4292B29BB2E6
:1006C00058BF5342E9E700BF333353407E4806002A
:1006D0002DE9F04F87B0B1F5004FC0E900239A46ED
:1006E000109BDDF848800363B4BF4FF0000B4FF060
:1006F000010B119B90F82C7083609146B1F5004F6F
:10070000139AC0F80C800446026180F82CB002DB1A
:10071000002F00F0CC80A569666947F2333385FB72
:1007200003532D0C45EA0345236A05933544F3171B
:10073000EF170493109B0193059B0093049B4FEAD2
:10074000E87C08FB03F006FB0C00A8FB066880446D
:10075000360C46EA0846524649465B46029604F184
:100760004400FFF73BFF94F82C20216B804604F1F6
:100770003C000AB101F50001FFF708FFA36A44F24B
:10078000ED3141F6EF6201FB03225342E169C3F30D
:100790000E034FF4E04CC2F30E0258BF5A4281FBE5
:1007A0000CC34FEA1C4C4CEA034C1304DB184FEA11
:1007B000E276A2624FEA134346EB060200FB07F71C
:1007C00043EA0243C21705FB0277A0FB05252F442D
:1007D000120C42EA074288FB0282666A656B0CF5DE
:1007E000105C4FEA184848EA02488CFB0620120CBD
:1007F00042EA0042A3F5004383FB02321B0CA06BCC
:1008000043EA02435D4A80FB0227120C42EA074298
:1008100043449B1A5B1B4FF2276783FB07371B0C74
:1008200043EA0743DA184FEA274747EB070CD31888
:1008300047EB0C073A014FEA031C42EA137213EB31
:100840000C0347EB02074FEA032C3A0242EA136219
:1008500013EB0C0347EB02071B0C43EA0743184456
:100860000344A36343F2333380FB0303000C40EAE9
:10087000034005EB400363632844FFF739FEA16999
:10088000FFF7EAFD236A002B05DD1A1120329B1ABF
:1008900048BF00232362002E06DDF3108033F61AD2
:1008A0004ABF00236662636207B0BDE8F08F002A8A
:1008B0004DDDD117090441EA1241C2F3423242EA46
:1008C000C102B2F5803F10464FF44045A8BF4FF437
:1008D000803080FB05514FF4C05683FB06632D0C1E
:1008E00045EA0145360C4FF4C04146EA034680FB19
:1008F00001311B0C43EA0143991947F233373D4458
:1009000003F50053059121624BF26B5163628A42F9
:100910004FEAE573E0612E46656104932CDDA0F596
:1009200035406B38C117090441EA10410023000427
:1009300044F695220BF072FAA061A0FB070307FBB7
:100940000133050C45EA03453544EF17F2E64FF451
:10095000C05283FB02321B0C43EA0243059303623D
:1009600047F233354FF40053C761456143620023BA
:10097000A3612E460497DDE61F46F8E733330200F5
:100980002DE9F843B1F5004F04461846B4BF0023E3
:100990000123B1F5004F1546089F099A0A9E23705E
:1009A00038DB636AB3F5FA4F01DA0133636294F816
:1009B0002830002B40F03081012384F828300B9B35
:1009C000B3F5960F40F33D810B9BA3F5960C40F2D7
:1009D000B9138CFB03311B0C43EA014303F580334D
:1009E0004FF4983183FB011E090C2CEAEC7C41EAA0
:1009F0000E4101EB2C31A160502186FB011E090C38
:100A000041EA0E41616003EB6C2103EB2C23E160B2
:100A1000236103E00023636284F8283002F5401864
:100A2000A36918EB08094FEAE87848EB08084FEA91
:100A30001949AB4249EA08494FEA284803D1E3691A
:100A4000834200F0FC80A561E0610AF091FF4FF065
:100A50005E510AF0E1FF4FF064510AF0DDFF814979
:100A60000AF0DAFF01464FF080400AF0A1F96B1955
:100A70004FEAE5756D411B0C43EA05434FF08F418A
:100A800003F141050AF0C8FF0BF0A2F985FB003025
:100A9000754A1B0C43EA004383FB02321B0C43EAFA
:100AA00002436361E2687148D11702FB08F809FB51
:100AB00001886168A2FB0929C844120C0B4442EA70
:100AC000084213445A4292B29BB258BF53426360E9
:100AD00083FB00301B0C43EA004001F07DF8236AE1
:100AE000A568FA0141F6EF6144F2ED3707FB031107
:100AF0004B42C3F30E03C1F30E0158BF59420B041E
:100B0000DB1821624FEAE17149411B0C43EA0143C2
:100B10002769A3F5004383FB073C31121B0C01F549
:100B2000C05143EA0C4381FB0313090C41EA034122
:100B300080FB0503000C40EA0340B61106F5803641
:100B4000014481FB06130E0C12F5101246EA03460F
:100B500005D0D317002001210BF060F9024623785D
:100B600033B1636AB3F5007FC4BFAB1303EB62120A
:100B7000E368AD1AA7F52057603B25EAE57523EA3F
:100B8000E37327EAE777B6F5C03FA560E360276126
:100B90004CDC16F5C03F63DBB6F5803F40DC16F158
:100BA000011F46DD206B324BE56A80FB03321B0CD4
:100BB00043EA0243F61A761B4FF2276186FB016176
:100BC000320C42EA014293184FEA214141EB0106FF
:100BD0009B1841EB06010A011E0142EA13729B19A0
:100BE00041EB02010A021E0242EA13629B1941EB29
:100BF00002011B0C43EA0143184443F2333203441D
:100C000080FB02022363030C43EA0243E81805EB6E
:100C10004305E562BDE8F883012384F82830FDE64A
:100C2000A6F58036B61006F58036BBE74FF4C03621
:100C3000B8E706F58036B610A6F58036B2E76369E8
:100C400030E70B994FF40E7381FB03311B0C43EA21
:100C500001430B9903F5B3431A33A1F5960CBFE694
:100C6000044E9FE733335340390F01007E4806009E
:100C7000333302000080FEFF2DE9F04F85B00446BB
:100C800008F0F4F900284ED0DFF8A0808246051D58
:100C900000F5827704F1740904F1400622E0D4F8EB
:100CA00024E0D4F820C0D4F83CB0E36AE269CDF87F
:100CB0000CB00291A169CDE900CEFFF761FE4310AF
:100CC00003EBD373B0F5003F47F6FF7260634FEA62
:100CD000630303DA4345B8BF43461AB225F8022B33
:100CE000BD4215D0A36BA16A3046002BD7D1206A34
:100CF000D4F824C0D4F830E0E36AE269CDF80CE01F
:100D00000291A169CDE9000C4846FFF7E1FCD6E766
:100D100020460022514608F029FA504605B0BDE8A9
:100D2000F04F08F0F9B905B0BDE8F08F0080FFFF83
:100D300030B5B3B0044601AA0021072000F0A2FF9D
:100D40001E4A11920121002345F2CE6509911292AB
:100D500001A92046C422502408930A938DF82C3010
:100D60000C930D930E930F9314938DF854301693A8
:100D70001793189319931A931B931C931D931E9307
:100D80001F93209321938DF88C30249325932693E1
:100D900027931395229510948DF8A03029932A93C8
:100DA0002B932C932D932E938DF8BC3030938DF88C
:100DB000C43008F027FF33B030BD00BF0000FFFF94
:100DC000FFF7B6BF202904BF4FF48033036070479C
:100DD000202904BF00230360704700BF1E390E297D
:100DE0000BD8DFE801F00B0E0A1114171A0A0A0AD1
:100DF0000A0A0A1D08001204426270471204426087
:100E000070471204826070471204C2607047120477
:100E10000261704712044261704712048261704798
:100E2000002AD4BF002201220262704700234FF43F
:100E300000120121036042608260C260026143616E
:100E40008361C36101624362704700BF1B4B1C4A50
:100E50001C4810B51C4C9A610C2108F093F82046F0
:100E6000FFF7E4FF194A12680123D21AB2FA82F29C
:100E7000520920462B21FFF7B1FF0021082009F07D
:100E800059F90021092009F055F901210B2009F039
:100E900051F90121062009F04DF90121052009F041
:100EA00049F90121042009F045F90320012109F045
:100EB00041F9BDE810400D2008F080BD98A1FF1F4A
:100EC000CC4C02000082FF1F34A2FF1F2898FF1F96
:100ED00030B4144C144D04F1100CA720012208E08A
:100EE00054F8221081F307014B40062AD8B212D0E1
:100EF00001324300511EDBB2032943EAD013EFD87D
:100F0000430055F82210DBB243EAD01381F3070106
:100F10004B40D8B2ECE70834A44505F11005DDD10B
:100F200030BC70473CA1FF1F2CA1FF1F2DE9F047EB
:100F300040208CB008F01EFE522804D1412008F059
:100F400019FE4B2803D000200CB0BDE8F0874220EA
:100F500008F010FE0228F6D16D460CAF2E464FF079
:100F600043084FF0A70A08F10604B146404608F0CE
:100F700001FE4FEA4A03DBB243EADA13434010F0C2
:100F8000800F08F101085FFA83FADCD1A04549F827
:100F9000040BEBD11836BE42E5D14F2008F0EAFD34
:100FA0008245D0D11548164E012304E0062B44F8A3
:100FB000141C0CD001335A1E032A55F8041B00EBF5
:100FC0008304F3D806EB830242F8041CF2E70C4ECC
:100FD00005A9012304E0062B45F80C4C0BD0013386
:100FE0005A1E032A51F8044F00EB8305F3D806EB91
:100FF0008302D460F3E70120A6E700BF50A1FF1FE2
:1010000030A1FF1F10B4174A1749184C012306E0FE
:101010005CF8140C1060062B0CD001330432581EFF
:10102000032801EB830CF3D804EB830050F8040C85
:101030001060F2E70E4A0D4C012306E05CF80C0C40
:101040001060062B0BD001330432581E032801EB2D
:10105000830CF3D804EB8300C0681060F3E710BC86
:10106000704700BF64A1FF1F50A1FF1F30A1FF1FE9
:101070007CA1FF1F01231E491E485A1E032A30B4BB
:1010800000EB830C1C4D51F8044B0DD95CF8142C6B
:1010900094420FD1062B10D001335A1E032A51F867
:1010A000044B00EB830CF1D805EB830252F8042CBF
:1010B0009442F1D0012030BC704710490E4D0123FD
:1010C00006E05CF80C2C9442F4D1062B0DD00133D1
:1010D0005A1E032A51F8044F00EB830CF1D805EB9C
:1010E0008302D2689442F2D0E4E7002030BC70471B
:1010F00064A1FF1F50A1FF1F30A1FF1F78A1FF1F98
:101100002DE9F84F402008F035FD18B100214020AE
:1011100008F04AFD2F4E304F06F110084FF04309FA
:10112000CA46012510E056F8254008F023FD84F357
:101130000704E4B2844203D05046214608F034FD4F
:10114000062D12D0DA4601356B1E0AF1010B032B76
:101150005046D946E7D857F8254008F00BFD84F3F0
:101160000704E4B2A042EDD0E6E70836464507F1B1
:101170001007D5D1FFF7ACFE04464F2008F0FAFC6B
:10118000844203D021464F2008F00EFD422008F093
:10119000F1FC022803D00221422008F005FD412085
:1011A00008F0E8FC4B2803D04B21412008F0FCFC60
:1011B000402008F0DFFC522803D05221402008F0E4
:1011C000F3FCFFF71FFF0549054A00230B7013606E
:1011D000BDE8F88F3CA1FF1F2CA1FF1F62A1FF1FDC
:1011E00094A1FF1F08B5FFF745FF78B90B4B1B789B
:1011F00003B908BD0A4A136841F26F7101338B428B
:101200001360F6DDBDE80840FFF77ABFFFF7FAFE8E
:101210000249034A01230B70136008BD62A1FF1F3E
:1012200094A1FF1F70B5092008F0FCFB04460620BE
:1012300008F0F8FB144E03460720336008F0F2FB79
:101240000546082008F0EEFB104B1860104B1B7889
:101250001BB133681C4484F30D0420460AF088FB5C
:101260000C490D4C0AF08CFC0AF0B2FD03462360D9
:1012700028460AF07DFB0749084C0AF081FC0AF079
:10128000A7FD206070BD00BFD4A1FF1FD8A1FF1F24
:10129000F0A0FF1F000081423898FF1F3C98FF1FFD
:1012A000F8B5082008F038FF774C034677482360EC
:1012B00007F008FE00287DD12268012A52D0744C24
:1012C000744B754A1B781578744A00211170002BF5
:1012D0006BD1734973480B68734A013300FB0322D7
:1012E00072480B60B0EBF20F7148026842F2107C5A
:1012F00024BF013202606345C4BF00230B60B2F516
:101300007A7F09DD002303604DB101210B2008F035
:10131000DDFE237853B9F8BD0DB1D207F5D5002114
:101320000B2008F0D3FE2378002BF4D0614C236807
:1013300043F69822013393422360ECDD5E4D2A7818
:10134000002A48D05D49574A02FB0312B1EB720FE5
:101350004DD25B4A00231360BDE8F84001210B2009
:1013600008F0B4BE574B1B6841F294118B42A6DDC6
:10137000474C2378002BA3D1474B53491D780A7063
:1013800052495348534E0A7085F0010552491D7069
:101390000270524B22703270514A0868106019680E
:1013A000504A3C4B11601B788EE7464B1A6801325D
:1013B0001A608EE7354807F0BFFD054638B3374C55
:1013C000404B34493448002222701A6001220578CB
:1013D0002F4C0A70EAE7FFF793FE38492368314A39
:1013E00002FB03120120B1EB720F28704AD3344A7A
:1013F000116801311160B3F57A7FABDC1368DB074C
:10140000AAD5BDE8F84000210B2008F05FBE1F48B8
:1014100007F09CFD00283FF44FAF2A4B1D48196888
:101420001B4C057040F6B732914223DC22780ABB90
:101430002D48294D0268D5F800C0284D2B492F684A
:10144000214EB2FA82F2520902602948150100EBDE
:101450000212405952684A60214A0860C2F800C02E
:10146000204A1A4D1A481B491760012232702A700F
:1014700002700A7008480949057800221A60227033
:101480000A7026E70E4AB6E7ECA0FF1F04A2FF1F72
:10149000D0A1FF1F18A2FF1FF0A0FF1F1AA1FF1F5E
:1014A00014A1FF1FD578E926D8240601368941000A
:1014B00010A1FF1FE4A0FF1F19A1FF1FDC240601DC
:1014C000E0A0FF1F14A2FF1F2DA1FF1F60A1FF1F9F
:1014D00061A1FF1F2EA1FF1F3898FF1F3C98FF1F1F
:1014E0003098FF1F3498FF1F2898FF1F1CA1FF1F73
:1014F00030A1FF1F70B5364D36482A68364C01239F
:101500001E21FFF76BFC6A68324801231F21FFF799
:1015100065FC2568012D42D0304E2E4856F8352006
:1015200001232121FFF75AFC23682A4806EBC30652
:10153000222172682A4E0123FFF750FC294A2548D0
:10154000126801232321FFF749FC274A214812682A
:1015500001232421FFF742FC22681E480123D21AEE
:10156000B2FA82F252092B21FFF738FC3368002BC4
:1015700023DB7F2B11DC4B2B21DD4B3B1B49C3EBCA
:1015800003135A00A1FB021212091E32BDE870407B
:10159000104801232C21FFF721BC3C22F6E7104E16
:1015A0000C4832682B462121FFF718FC32680948A5
:1015B0002B462221FFF712FCC0E70022E6E70C4988
:1015C000C3EB03125200A1FB0212D208DEE700BFF8
:1015D0001CA1FF1F34A2FF1F2898FF1F50A1FF1F4F
:1015E0002C98FF1FD4A1FF1FD8A1FF1F4FECC44EA2
:1015F000B5814E1B012830B4164B14DD1A68164B0A
:10160000023800EB420053F820208A4209D0134CE4
:1016100043F82010124B4FF0010C002284F800C058
:101620001A6030BC70471B680E4A00EB830352F807
:101630002340A142F5D00C4D42F82310074C084B33
:1016400045F820104FF0010C002284F800C01A6009
:1016500030BC70472898FF1F50A1FF1F62A1FF1FD9
:1016600094A1FF1F30A1FF1F1CA1FF1F2DE9F04F08
:10167000354B36491A780C7883B0002A57D1DFF8F9
:10168000D09099F800306400002B3DD0314FDFF846
:10169000C8B0DFF8C8A0324EDFF8C8803878DBF871
:1016A0000010DAF800303568D8F8002028B1CB1ADD
:1016B000002BB8BF5B42012B0ADD20460192FFF7E9
:1016C00099FFDBF80030CAF80030019A00233B7024
:1016D000DFF894A09AF800302BB1AD1A002DB8BFF6
:1016E0006D42012D20DD3168601CFFF783FF3268F9
:1016F0003B78C8F8002000228AF80020A3B989F8B6
:10170000003003B0BDE8F08F134E154D3168204610
:10171000FFF770FF2968601CFFF76CFF0F49114B42
:1017200030682A6808601A6003B0BDE8F08F0A4C80
:101730000B480A4A0B4924680068146000220860BC
:101740001A7003B0BDE8F08F2EA1FF1FF0A0FF1F9D
:101750002DA1FF1F60A1FF1F3898FF1F3098FF1FAA
:101760003C98FF1F3498FF1F61A1FF1F70B5124DF9
:10177000124B2968A1F10101B1FA81F10024490954
:1017800003201C7008F0A2FC2968B1FA81F1042042
:10179000490908F09BFC2146052008F097FC2146EA
:1017A000062008F093FCBDE87040054801230F2295
:1017B0001C21FFF713BB00BF2898FF1F1AA1FF1FB2
:1017C00034A2FF1F70B5092008F0A6FC01280446CA
:1017D00004D010B93C4D2B7823BB70BD3A4D2B780B
:1017E000002BFAD1082008F01DF9384B602818604A
:1017F0000646374B1DDD1C7030460AF0B9F83549F6
:101800000AF0BEF9002104460AF0A4FA002840D1EB
:10181000314920460AF0BCFA00284BD120460AF094
:10182000D7FA0AE02D4801222021FFF7D1FA2C70C7
:1018300070BD1B784B20002BDED1294C0123324692
:10184000206024212548FFF7C9FA264B1E68012E87
:1018500023D02368002B1EDB7F2B18DC4B2B2BDDCA
:101860004B3B2149C3EB03135A00A1FB021212099F
:101870001E321A4801232C21FFF7B0FA0123174822
:101880007F222021FFF79EFA01232B7070BD3C229E
:10189000EFE70020D1E70022EBE722680F4833464C
:1018A0002121FFF79BFA22680C4833462221FFF7DB
:1018B00095FACEE77F20C0E70C49C3EB03135A002B
:1018C000A1FB0212D208D4E7E8A0FF1FD8A1FF1F96
:1018D0002CA1FF1F000081420000FE4234A2FF1F26
:1018E0002C98FF1F2898FF1F4FECC44EB5814E1B4C
:1018F0002DE9F84F584E3478002C40F09780574D22
:101900002F46204608F036F901348028A8BF002071
:10191000042C47F8040BF4D1D5E90023504FD5F837
:101920000890D5F80C803A603A617B607B611E2498
:10193000C7F80890C7F81890C7F80C80C7F81C8043
:10194000204608F017F97F28D8BF07EB840304F17D
:101950000104D8BF43F8780C222CF1D1142008F0F0
:1019600009F9DFF800A1DFF800B17F28D4BF0346F2
:101970004B461520CAF8003008F0FCF87F28D4BF89
:1019800003464346CAF80430204608F0F3F8013411
:101990007F28D8BFCBF80000262C0BF1040BF3D125
:1019A000162008F0E7F87F28D4BF03464B461720DF
:1019B000CAF8083008F0DEF82C4C7F28D4BF034664
:1019C0004346CAF80C3023681A0107EB0313BA58D0
:1019D0005B682A606B60FFF7A9FA002839D0FFF72F
:1019E00011FB2368224A190107EB031379585B683E
:1019F000C5E900131F4B204D002414701C60FFF735
:101A000011FC1E4B1E4A1F681E4BD2F800C0C3F8C3
:101A100000C01D4B1D481F601D4B1E491E4A1C70F7
:101A200001232B7003700B7013703370FFF738FCB9
:101A3000FFF7F8FBFFF79AFE184B1B680BB9FFF78F
:101A400015FEFFF7CFFBFFF755FDBDE8F84FFFF799
:101A5000B9BEFFF755FBC2E718A1FF1F1CA1FF1F6E
:101A600030A1FF1F50A1FF1F40A1FF1F2898FF1F9B
:101A700062A1FF1F94A1FF1F2DA1FF1F3C98FF1F14
:101A80003898FF1F3098FF1F3498FF1F60A1FF1F79
:101A90001AA1FF1F61A1FF1F2EA1FF1FECA0FF1FB6
:101AA00070B53F4E3F4C82B008F02EF82822082136
:101AB0003D4807F0F1F93D4A336814600021116197
:101AC0001181D160002B66D019465B69002BFBD1D8
:101AD0004A610025364B1360556155609572354853
:101AE000FFF76EF9344A13464FF4806143F8284BF0
:101AF0003468D560136111819562D56215635563B1
:101B0000002C4AD0234619465B69002BFBD14A6161
:101B10002A4B2B48106000214FF480309061D06137
:101B200010625062516151609172012003F11802FC
:101B300058721A611972D960996122466469002C41
:101B4000FBD153611F4A5C615C609C721A601B4848
:101B500000F070FD1C4807F05BFB174B1349009425
:101B60002246194807F0C8FB184A1949164809F0D7
:101B70003FFE184807F04CFB22460F490F4B0094DC
:101B8000144807F0B9FB114A1149124802B0BDE8E8
:101B9000704009F02DBE32609BE732601446B7E713
:101BA00070A8FF1FACCD000004A2FF1F1CA2FF1FE6
:101BB000A0CD000034A2FF1F98A1FF1FF4A0FF1FBB
:101BC00020CF00002CCF0000DCA1FF1F2498FF1FB6
:101BD000AD930000F0A1FF1F264B274910B583FBF2
:101BE0000024C217C2EB644201FB120283FB020312
:101BF0002249D017C0EB2340214B01FB1020984213
:101C0000C8BF081A80FB001E090C41EA0E414FEACA
:101C10002E4E4FEA0E1C0B015B184CEA117C4EEB6A
:101C20000C0C4FEA0C1C4CEA137C1B015B184EEBAE
:101C30000C0CDB184CEB0C0C1B0C43EA0C43A3F50F
:101C40002A532A3BDC1703FB0EFE01FB04EEA3FB29
:101C500001318E441B0C43EA0E4303F5803383FBB2
:101C60000031064C180C40EA0140A242C8BF404275
:101C700010BD00BF83CC7C517E4806003F2403008A
:101C80001F920100002806DD043A02EB800042F8B2
:101C9000041F8242FBD170470020704790F86120FA
:101CA00090F86000101A704790F8603090F861204A
:101CB0009A4205D95A1C034480F86020187E704768
:101CC0004FF0FF30704700BF90F8603090F861200F
:101CD0009A4286BFC018007E4FF0FF30704700BFA9
:101CE000704700BFB0F8AE302BB190F8AD30482B44
:101CF00003D90123436000207047C218013380F8E4
:101D0000AD30012082F86310704700BF38B5B0F8DD
:101D1000AE40A4B190F8AD30C3F14904A24284BFF3
:101D200001224260054698BF14466330184422469B
:101D300007F068FF95F8AD30234485F8AD302046B4
:101D400038BD00BF70B5164C2369DB7813F0200551
:101D500014D094F8B0300133DBB2012B84F8B030EA
:101D600002D894F8AF3043B9636994F8B1201344B2
:101D7000BDE87040187A08F007B970BD636994F83F
:101D8000B1201344187A08F0FFF8D4F8B830002BCB
:101D9000F3D094F8610084F86050BDE870401847B3
:101DA000FC98FF1F70B5164C2369DB7813F02005F3
:101DB00014D094F8B0300133DBB2012B84F8B0308A
:101DC00002D894F8AF3043B9636994F8B120134452
:101DD000BDE87040187A08F0D7B870BD636994F810
:101DE000B1201344187A08F0CFF8D4F8B830002B9B
:101DF000F3D094F8610084F86050BDE87040184753
:101E00004098FF1F10B50369D978CAB2C9060446C5
:101E100022D510215006D9701DD512F0040250D0E1
:101E20003D49D4F8B42000230B7084F8AD30002A6B
:101E30005BD0904794F8AD30002B56D02369D02268
:101E40009A70236994F863201A712369012284F837
:101E5000AC200222DA7010BD5106DED4997811F060
:101E6000100117D12D4A80F8B01090424FD02C4A63
:101E7000904241D094F861101A794729D2B2E8D83B
:101E8000254800780028E4D0481C214484F86100EB
:101E90000A76DEE712F0010220D190F8AC1090F83B
:101EA000AD00884281BF4A1C091984F8AC2091F822
:101EB00063201A712369D0229A7023690222DA7092
:101EC000C9E7236984F86120C0219970124A236907
:101ED0000121117002221879DA70BCE7C0229A70D1
:101EE00003691A790222DA70B5E70122002384F827
:101EF000AD2084F86330A1E7436990F8B120094927
:101F000013440322187A07F0CBFF2369B2E7436931
:101F100090F8B1200449F3E7F8A2FF1F4098FF1F93
:101F2000FC98FF1F451D0000A51D00000148FFF79C
:101F300069BF00BF4098FF1F0148FFF763BF00BFA4
:101F4000FC98FF1F90F81CC04160BCF1020FC260FA
:101F500001D18368184707F00FBB00BF84460068B3
:101F60002DE9F0410C4611461A46C36813F0807FF4
:101F70007A4B03604BD1D30700F1D1809CF82460E9
:101F8000174646EA0626002F00F0B78034B12678BF
:101F9000637846EA032676BA0234B6B2DCF8043037
:101FA00093F808E0022F0EF1FF3E4FEA0E3E0CBF01
:101FB00046F0805346F010431FFA8EFE4363023F03
:101FC0000AE011B105F8010B2946013A03F4704308
:101FD000734517D9DCF80000C36A13F0F00FF5D091
:101FE00012F0010F806B0D46EBD1C0F3072819B139
:101FF00005F8028B4870294603F470437345A2F13B
:102000000202E7D8002F78D0DCF80000BEE7D30743
:102010005FD49CF824701646BFB2002E45D024B180
:10202000637814F8027B47EA0327DCF8043093F85E
:1020300008E0022E0EF1FF3E4FEA0E3E0CBF47F0C5
:10204000805347F010431FFA8EFE4363023E0AE0BE
:1020500011B105F8010B2946013A03F470437345A9
:1020600017D9DCF80000C36A13F0F00FF5D012F0B6
:10207000010F806B0D46EBD129B105F8020BC0F3BF
:1020800007204870294603F470437345A2F1020209
:10209000E7D856B1DCF80000C1E729B100F8023BEF
:1020A000C3F307234B700146023A82B1DCF80030DB
:1020B000D86A10F0F00FF8D0D4079B6B0846ECD527
:1020C00011B100F8013B0146013A002AEED1BDE80A
:1020D000F08184B314F8013B012A18BF43F0004398
:1020E00043639CF82470561E96E7C3F3072419B186
:1020F00000F8024B4B700146023A002AE7D0DCF8A8
:102100000030D86A10F0F00FF7D0D4079B6B084668
:10211000EBD511B100F8013B0146013AEDE79CB166
:1021200014F8013B012A18BF43F0004343639CF8B5
:102130002460571E25E79CF82470012A1ABF47F037
:10214000004343634763CEE79CF82460012A1ABF2B
:1021500046F0004343634663EBE700BF00041F8083
:10216000436810B41C685A682168114302682160F2
:10217000154C16491460D160154C16491461116054
:10218000417A154A5C180A3194F824C053F821406A
:1021900002EBCC0149680C60017A5C1803EB810109
:1021A00094F818C0CC6902EBCC0149680C60817AC4
:1021B00010BC581803EB810390F83000596B02EB08
:1021C000C00253681960704701401F0001100038B9
:1021D0000110007800001F80C8D3000010B44268CE
:1021E00090F809C0104B944400219CF824C003EBE4
:1021F000CC0CDCF80440216090F808C094449CF8B2
:1022000018C003EBCC0CDCF804402160847A006831
:102210002244064C92F8302003EBC2035B6819603D
:10222000046010BC704700BFC8D3000001401F000D
:102230000BB1FFF793BE704770B4016B4A4A09793E
:10224000D177C16A09791177016B09791177826AAF
:1022500003462AB34168C9688A4243D9C46A006BFD
:10226000521A21689A620D6803F12404A5424FF0C6
:10227000010259D01C68E56815F0804F0D6829D11E
:102280002D780E6845F0004501360E6065633649CD
:102290000079C87612B1DB6A1B79CB7670BC7047C7
:1022A0000168324C406B0A63CC62CC6824F08044F5
:1022B000CC6004682E4924684FF0030C8C4283F8EC
:1022C00025C039D1037F4260022BC26038D170BC77
:1022D000836818472D880E6845F0004502360E6069
:1022E0006563D4E7C16A0968CC8B260402F1FF302C
:1022F00031D4C0F30E00C883CC8B186BA4B2CC824F
:102300000468E58B2D041ED4C2F30E05E583E58B2E
:10231000ADB2E5820D680024013A9C6203F1240409
:1023200018BF0122A542A5D11968CC6893F82440B2
:1023300044F000444C63AAE72346114670BC18479A
:1023400070BC07F019B9E58BC2F3080605F47E45A9
:102350003543E583DBE7CC8BC0F3080004F47E440F
:102360002043C883C8E700BF0080004000000FFF83
:10237000451F000008B50248FFF75EFF08BD00BF1B
:10238000B899FF1F10B5044607F0DCF8204610BDD1
:10239000024A0349034809F02BBA00BF2498FF1FE3
:1023A00085230000FCA2FF1F38B5074D074C0848E5
:1023B0002A46214609F01CFA2A4621460548BDE86E
:1023C000384009F015BA00BF2498FF1F852300008C
:1023D00004A3FF1F0CA3FF1F024A0349034809F08F
:1023E00007BA00BF2498FF1F8523000014A3FF1F16
:1023F000024A0349034809F0FBB900BF2498FF1FB4
:10240000852300001CA3FF1F024A0349034809F06B
:10241000EFB900BF2498FF1F8523000024A3FF1FEE
:10242000024A0349034809F0E3B900BF2498FF1F9B
:10243000852300002CA3FF1F024A0349034809F02B
:10244000D7B900BF2498FF1F8523000034A3FF1FC6
:10245000024A0349034809F0CBB900BF2498FF1F83
:10246000852300003CA3FF1FF8B5002705463C4626
:10247000B4B33946284606F09BFE08B3BB1D04F1F1
:10248000040E55F82360B6F5803F00F1040C47D0E8
:1024900000F582715CF8042B36FB02F336FB12F276
:1024A00003F30F0302F30F02C3EA0243DEF8002036
:1024B00093FA12F38C454EF8043BEBD106F02CFE58
:1024C0000137042FD4D128462146002206F04EFEC3
:1024D0002046BDE8F84006F01FBE0137042F3BD070
:1024E0003946284606F070FE04460028F5D0BB1D8C
:1024F00055F82300B0F5803FE2D0211D04F5827627
:102500000B6830FB03F230FB13F302F30F0203F30B
:102510000F03C2EA034341F8043BB142F0D1CFE7D5
:1025200000F10C0204F10C0300F5867C53F8081C42
:1025300052F8086C91FA16F143F8081C52F8046C32
:1025400053F8041C91FA16F10832944543F8041C20
:1025500003F10803EAD1B1E7F8BD00BF024A03491D
:10256000034809F045B900BF2498FF1F85230000E8
:1025700044A3FF1F10B5002106F01AFE80B10346E8
:1025800072B6094A106860B108490C6834B1146029
:102590000B6062B6BDE8104006F0BEBD0B6062B6CF
:1025A00010BD136062B610BD4CA3FF1F50A3FF1FE8
:1025B00010B51A4B1A481A681A4912681B791A4C36
:1025C000C3778A42206836BF0A46A1F5807202F5B9
:1025D0008071D8B100F1040C3CF9023B03F50043D3
:1025E0001B1122F8023B9142F6D806F095FD0F4BE5
:1025F0000022196821601A600D4B1B782BB14FF037
:10260000E0234FF08042C3F8082210BD4FF400636E
:1026100022F8023B9142FBD8EEE700BF58A3FF1F10
:1026200000800040408FFF1F4CA3FF1F50A3FF1FDF
:1026300054A3FF1F70B501213C483D4D06F024FF17
:102640003C4AD36A802143F48053D362002485F846
:10265000211040F608062C800120083407F0A6FD62
:10266000A3B2B34224B2F6D1324BDB6B5B0205D589
:10267000314A116848F6A2738B4348D02D492E4B3E
:10268000CA6B2E4842F480020124CA63DC6048F61B
:10269000A37140F23F4440F201125C60196018607F
:1026A0001A61224C264823682649D860264A2048C9
:1026B00019605A60186100224FF4807102250620CB
:1026C000D9829A82D9839A6198839D60237903F194
:1026D000804303F50433B0211A70197006F080FEB0
:1026E00022791A491A4C5311207003F13823CA7603
:1026F00002F110001749184C41F820404033AB401C
:1027000002F01F02012101FA02F21A6070BD516845
:1027100040F23F439942B1D1D368012BAED1126947
:1027200040F201139A42A9D1BBE700BF58A3FF1F93
:1027300000C00C400080044000600340A28F0100F4
:1027400000FEFFFF408EFF1F0200010100800040DD
:1027500054A3FF1F0092FF1FB1250000024A034946
:10276000034809F045B800BF2498FF1F85230000E7
:1027700058A3FF1F024A0349034809F039B800BFB4
:102780002498FF1F8523000060A3FF1F024A03490E
:10279000034809F02DB800BF2498FF1F85230000CF
:1027A00068A3FF1F024A0349034809F021B800BF8C
:1027B0002498FF1F8523000070A3FF1F024A0349CE
:1027C000034809F015B800BF2498FF1F85230000B7
:1027D00078A3FF1F024A0349034809F009B800BF64
:1027E0002498FF1F8523000080A3FF1F024A03498E
:1027F000034808F0FDBF00BF2498FF1F8523000099
:1028000088A3FF1F704700BF036D0BB10120704705
:10281000406D003818BF0120704700BF10B5044656
:10282000806D18B109F0B8FC0023A365236D2BB1AE
:1028300004F11800BDE8104005F05EB9636D002B8F
:10284000F6D110BD10B50446806D00B110BD4FF437
:10285000807009F099FCA065B0B1236D0022027070
:102860003BB101464FF48072184604F06DFEA06D36
:1028700010BD636D002BE9D001464FF480721846FD
:1028800002F0C4FBA06D10BD0148A06510BD00BFE3
:1028900090A3FF1F38B5056D6DB10BB1002038BD99
:1028A0001146284603F0AEFB0028F7D02846BDE8C5
:1028B000384003F03FBD446D002CEFD0204601F0BE
:1028C0006BF80028EAD02046BDE8384001F086BE0B
:1028D0008A79A2F150031B0620D4F0B54B79046D20
:1028E0000D798E784F780978013385B002F26C72D9
:1028F000DBB244B103918DE8E0000421204603F0EF
:10290000ADFC05B0F0BD406D0028FAD003918DE814
:10291000E000042101F0B2FD05B0F0BD00207047D9
:1029200010B50446006D80B1037813F0700F00D12C
:1029300010BD002103F066FB606D0028F8D0BDE8F3
:1029400010400022002301F027B8606D0028EFD06E
:1029500090F8313013F0500FEAD0BDE8104000225B
:10296000002301F019B800BF10B50346006D82B016
:102970000C4620B30DF1060201A902F06BFF38B33B
:10298000BDF80430BDF8062053EA020120D0C2F39E
:10299000451C02F01F00D20AC3F343114000A2708D
:1029A0005A0A0139207003F01F0302F5EA62012080
:1029B00084F801C023716171A27102B010BD586D1D
:1029C00030B10DF1060201A900F080FE0028D7D138
:1029D000002002B010BD00BF10B50346006D82B0EC
:1029E0000C4620B30DF1060201A902F023FF38B313
:1029F000BDF80430BDF8062053EA020120D0C2F32E
:102A0000451C02F01F00D20AC3F343114000A2701C
:102A10005A0A0139207003F01F0302F5EA6201200F
:102A200084F801C023716171A27102B010BD586DAC
:102A300030B10DF1060201A900F036FE0028D7D111
:102A4000002002B010BD00BF0369B3B110B41C6810
:102A50000B48E46884420CD1186D10B110BC03F02F
:102A6000A3BC586D10B110BC01F02CBE002010BCEE
:102A700070471846234610BC18470020704700BF17
:102A8000412D0000006990B10368154A1B6993420B
:102A900025D1036D63B1187810F0080007D0D8690C
:102AA0005B69C01A48BF6FF0004070471846704716
:102AB000436D002BFAD093F8310010F00800F6D0E7
:102AC000186919685A695B68401A62EB0303B0F130
:102AD000004F73F10003EAD36FF0004070471847CE
:102AE000392E0000036963B11A68074992698A4266
:102AF00008D1186D08B103F0ABBB586D08B101F0F7
:102B000075BB704718461047C12C0000036973B1AC
:102B10001A68084952698A4207D1186D08B103F052
:102B200035B9586D18B100F01FBF184610474FF067
:102B3000FF307047192C0000036D13B15869002154
:102B40007047436D13B1D3E9000170471846194629
:102B5000704700BF036D13B1D86900217047436D02
:102B600013B1D3E90401704718461946704700BFF6
:102B7000F0B595B00022234F01924FF47A741831CA
:102B8000054604A8CDE9122202948DF80C20009786
:102B900005F01EF8129B002B29D05C2007F04CF9A1
:102BA000019BC360029B03619DF80C300375164BBB
:102BB00003600026154B83600446466004A9183064
:102BC00004F06CFF4FF47A73AB606368104AA7603F
:102BD0000133A6656E602A602E732C6163600D4B15
:102BE000009304A804F088FF284615B0F0BD139B9D
:102BF000002BD2D1064A6B60AC602B732A602B612C
:102C0000EDE700BF80CF0000D0CF000038CF00003C
:102C1000A4CF00005CCF00000346006D08B103F0B4
:102C2000B5B8586D08B100F09FBE4FF0FF30704747
:102C30000346806C08B103F0A9B8D86C08B100F065
:102C400093BE4FF0FF307047036D33B11B7813F024
:102C5000700F14BF012000207047406D30B190F814
:102C6000313013F0500F14BF01200020704700BF17
:102C70000346006D08B102F0BBBF586D08B100F00B
:102C80009FBD4FF0FF30704700B50346806C83B0A6
:102C900058B101220DF1070102F0AAFF01280CD161
:102CA0009DF8070003B05DF804FBD86C28B1012241
:102CB0000DF1070100F084FDF0E74FF0FF30F1E780
:102CC0000346006D08B103F0C3BA586D08B101F0B6
:102CD0008DBA70470346806C08B103F0B9BAD86C5E
:102CE00008B101F083BA7047036923B310B51968BE
:102CF000124A8C68944282B014D1186D48B10122F6
:102D00000DF1070102F074FF90B19DF8070002B0C9
:102D100010BD586D0028F8D001220DF1070100F018
:102D20004FFDF1E701220DF107011846A047EBE73F
:102D30004FF0FF30EBE74FF0FF307047712C000091
:102D40000346006D08B103F02FBB586D08B101F0C8
:102D5000B9BC70470346806C08B103F025BBD86C42
:102D600008B101F0AFBC704700B5034683B0806C7A
:102D70008DF8071038B101220DF1070103F014FBA3
:102D800003B05DF804FBD86C0028F9D001220DF1E6
:102D9000070101F097FC03B05DF804FB8A79A2F10A
:102DA00050031B0620D4F0B54B79046D0D798E7855
:102DB0004F780978013385B002F26C72DBB244B10E
:102DC00003918DE8E0000221204603F047FA05B0A8
:102DD000F0BD406D0028FAD003918DE8E00002219B
:102DE00001F04CFB05B0F0BD00207047836C53B17F
:102DF000187810F008000DD0D8695B69C01A48BF78
:102E00006FF000407047C36CA3B193F8310010F02D
:102E1000080000D17047186919685A695B68401A40
:102E200062EB0303B0F1004F73F10003F2D36FF0D4
:102E3000004070471846EDE7036D53B1187810F065
:102E400008000DD0D8695B69C01A48BF6FF0004018
:102E50007047436DA3B193F8310010F0080000D122
:102E60007047186919685A695B68401A62EB030376
:102E7000B0F1004F73F10003F2D36FF000407047E0
:102E80001846EDE710B5036982B08DF80710BBB1A5
:102E90001968104ACC68944215D1186D30B10122DE
:102EA0000DF1070103F080FA02B010BD586D002843
:102EB000FAD001220DF1070101F004FC02B010BDAF
:102EC000184602B010BD01220DF107011846A047B7
:102ED00002B010BD412D000038B50446806D0C4B8A
:102EE000236018B109F058F90023A365236D04F19C
:102EF00018054BB1284604F0FFFD064BA360284699
:102F000004F0FAFD204638BD636D002BF2D1F4E7E2
:102F1000D0CF00005CCF000038B50446806D0E4B6A
:102F2000236018B109F038F90023A365236D04F17B
:102F300018056BB1284604F0DFFD084BA360284656
:102F400004F0DAFD20465C2106F078FF204638BD0B
:102F5000636D002BEED1F0E7D0CF00005CCF000016
:102F600030B4029C11469C4634B1012C1CD0022C7A
:102F70000ED0002030BC7047056DF5B14FF0FF3327
:102F8000934274EB0C04F4D3284630BC03F03AB8F7
:102F9000026D0AB3D36959184CF10003002BE8D134
:102FA00030BC104603F02EB8026D62B15369591857
:102FB0004CF10003002BDCD1F2E7406D0028D8D0A3
:102FC00030BC00F0E9BC406D0028D2D0D0E900232D
:102FD0008A184CEB0303F3E7406D0028C9D0D0E911
:102FE00004238A1830BC4CEB030300F0D5BC00BFAF
:102FF00070B50569234B03600446002D32D06E681E
:10300000013E6E6076BB2B681F4ADB6A93422FD16C
:10301000A86D10B109F0C0F8AE652B6D23B305F1B2
:10302000180004F069FD2569E5B12B68174A5B6853
:10303000934224D1A86D164B2B6018B109F0ACF85F
:103040000023AB652B6D05F11806A3B1304604F0E3
:1030500053FD104BAB60304604F04EFD5C2128461A
:1030600006F0ECFE204670BD6B6D002BD7D1DAE781
:1030700028469847D7E76B6D002BE7D1E9E728464C
:103080009847EFE7A4CF00001D280000192F00008B
:10309000D0CF00005CCF000070B50569254B036000
:1030A0000446002D32D06E68013E6E6076BB2B6800
:1030B000214ADB6A934233D1A86D10B109F06CF854
:1030C000AE652B6D43B305F1180004F015FD2569BD
:1030D000E5B12B68194A5B68934228D1A86D184B5B
:1030E0002B6018B109F058F80023AB652B6D05F182
:1030F0001806C3B1304604F0FFFC124BAB603046FB
:1031000004F0FAFC5C21284606F098FE20461421C3
:1031100006F094FE204670BD6B6D002BD3D1D6E730
:1031200028469847D3E76B6D002BE3D1E5E72846A7
:103130009847EBE7A4CF00001D280000192F0000DE
:10314000D0CF00005CCF0000704700BFF0B5012B6E
:1031500095B0054638D0022B40F202200CBF034642
:1031600000230431684604F0E3FD129B002B34D0A9
:103170005C2006F061FE1F4B0026C0E90036019B73
:10318000C3601D4B8360029B036104AF9DF80C304C
:10319000037504463946183004F080FC174BA360D1
:1031A0004FF47A73AB606368154AA66501336E60AD
:1031B0002A602E732C616360124B0093384604F032
:1031C0009BFC284615B0F0BD44F20223043168464A
:1031D00004F0AEFD129B002BCAD1139B002BC7D16C
:1031E000074A6B604FF47A71A9602B732A602B61D8
:1031F00004AFE1E7D0CF000038CF000080CF00005F
:10320000A4CF00005CCF000010B5D0F884448EB08D
:103210000A4644B1002321466846009302F098FC18
:1032200080B90EB010BDD0F8881441B1234668466D
:103230000C9400F053FE50B900200EB010BD0846AB
:103240000EB010BD684602F095FE0EB010BD684687
:1032500000F002FF0028EFD0E3E700BF70B5D0F820
:1032600084548EB016465DB105F5896500230A4683
:1032700068462946009302F0EDFB90B90EB070BD90
:10328000D0F888040028F9D000F589640A462B4656
:10329000214668460C9500F0B9FD48B900200EB0F3
:1032A00070BD32462946684602F0A8FD0EB070BDDA
:1032B00032462146684601F021F80028EED0DDE7CD
:1032C00010B5D0F884448EB00A464CB1002000906E
:1032D00001232146684602F03BFC80B90EB010BDC8
:1032E000D0F8881441B1012368460C9400F0F6FD33
:1032F00050B900200EB010BD08460EB010BD684693
:1033000003F0CEFC0EB010BD684600F04BFE002866
:10331000EFD0E3E730B5D0F884448FB00A464CB123
:103320000025012304F589616846009502F01EFB23
:103330000FB030BDD0F888040028F9D000F58961BD
:10334000012368460C9401F047F80FB030BD00BF70
:1033500010B5D0F884448EB00A463CB10023214613
:103360006846009302F0F4FB0EB010BDD0F888144C
:1033700031B1234668460C9400F0B0FD0EB010BD8C
:1033800008460EB010BD00BF70B5054690F8C004E9
:1033900008B9014670BDD5F88404002838D0C46946
:1033A000D5F89034013C1BB31A7E0ABB01211846A4
:1033B00005F0DAFA88B1D5F8840400283ED1D5F8B2
:1033C000880408B102F098F80646D5F8900420B1B8
:1033D000002105F0C9FA00B1A41BD5F8843473B1FB
:1033E0009B794FF40071994089B2A1FB040170BD33
:1033F00004F006FAD5F88434241A002BF0D1D5F85D
:1034000088040028C5D0D0F83C14A4FB010170BD8D
:10341000D5F88804D5F8903450B1D0F8304423B1B1
:103420001A7E002AC2D00028B3D002F065F8E1E786
:103430000BB10446F4E718460146ABE704F0E0F9A7
:103440000646C2E72DE9F043D0F890548DB04DB157
:1034500098462B680446DB6928469847B0F5405FDC
:10346000064604D8002630460DB0BDE8F0834FF480
:10347000007008F089FE07460028F3D00DF104091A
:10348000B6F1806F024643462946484616D901F0F8
:1034900017FB0646384608F07FFE002EE2D02B6868
:1034A00028461B6A984794F8B034FF2B0AD10023B2
:1034B0003046C4F890340DB0BDE8F08303F004FF4B
:1034C0000646E7E7D4F8B434B4F8B0240293D4F84D
:1034D000B834ADF80420039304F2944599E80E0043
:1034E000284605F02DFA94F8A134C4F89054002B26
:1034F000B9D101231A462946201D04F0A5FBB2E7E5
:1035000090F8C03463B1D0F8843463B19A79D96942
:103510004FF40070904080B20139A0FB0101704768
:10352000184601467047D0F888040028F9D0D0F832
:103530003C14D0F83004A1FB0001704770B5D0F8FE
:10354000903484B00446ABB190F8C05490F8C204F3
:103550005DB1212820D806F0DFFD051E18BF01252A
:10356000284684F8C05404B070BD212808D806F05D
:10357000D3FD28B90025284684F8C05404B070BD96
:1035800094F8B034FF2B12D100232846C4F89034AD
:1035900084F8C05404B070BD6A460A21184604F08D
:1035A00071FE0546284684F8C05404B070BDD4F8B6
:1035B000B424D4F8B834B4F8B0140293ADF80010C1
:1035C000019204F294466B460ECB304605F0B8F9F2
:1035D00094F8A134C4F89064002BCCD101231A468E
:1035E0003146201D04F030FB0546C4E710B51448F1
:1035F000144C1549154A04604FF0290C002380F83B
:10360000A1C44FF47F4E4FF0FF0C80F8A53480F832
:10361000BC34A0F8C0E480F8C2C4C0F89C14C0F860
:103620009424BDE810400A4A0A49C0F88434C0F81E
:103630008834C0F8903480F8AC3408F0D9B800BFB2
:1036400094A3FF1F2CD000000110013824D10000EA
:103650002498FF1F4931000070B500F124038C4607
:103660000546164693E8070084B001AC84E80700DD
:10367000286A4FEA4C12214601F05EFE012806D16D
:10368000286A3246214601F03BFE04B070BD00209E
:1036900004B070BD10B5044600F0A8FD002384F806
:1036A000313084F8333010BD38B513460D46002252
:1036B00000F12401006A1C4601F022FE20B143897A
:1036C0002B8003892380012038BD00BF38B5134605
:1036D0000D46002200F12401006A1C4601F010FE94
:1036E00020B1C3892B8083892380012038BD00BF8E
:1036F00038B590F831300BB1002038BD04460D4686
:103700003822194609F044F80120402384F831306A
:1037100084F83300256238BD70B40C78202C0D4637
:10372000114603D115F8014F202CFBD00D608D60A0
:103730002C783CB3214E0CE0A4F1220C5FFA8CFCF7
:1037400026FA0CFC1CF0010F10D12E2C16D12C786F
:10375000C4B12F2C24D03C2C05F1010509D8212C13
:10376000EAD804F1FF3CBCF11E0F15D8002070BC54
:1037700070475C2CFAD009D97C2CF7D08D602C785E
:10378000002CE6D11D6070BC01F0A4BC3E3C012CB5
:10379000F4D8002070BC7047202CD8D08D60EEE7A4
:1037A0002C46254614F801CBBCF1200FF9D0BCF112
:1037B0002F0FF6D01D6070BC01F08CBC01210005FC
:1037C0002DE9F04790F83330DC0782B005466DD51F
:1037D00058060F46904640F1B580D5E90023D5E95B
:1037E000041018EB020443F10003A14270EB030341
:1037F000C0F0AE80B8F1000F54D0D5E90032464693
:10380000D5F82090D9F838441C40C4F3080A002C9D
:1038100057D1134377D195F831305A064CBFD9F8B8
:103820003414E969A96199F84534D9F82C2402398E
:1038300099401144B6F5007F50D3D9F81C228A4232
:103840004CD0B6F5806F65D34FF0010A0AFA03FA3F
:10385000AAEB040A730A9A4528BF9A468A424FEA9D
:103860004A240AD30AEB01039A4206D209F50470EE
:10387000019105F05DF90199C0B1D9F81402D0F8B1
:1038800000C05346DCF814903A46C84770B123464E
:10389000D5E900125B1842F10002361BC5E900327F
:1038A0002744ADD1404602B0BDE8F08795F83230EC
:1038B0004FF0FF3043F0020385F8323002B0BDE82C
:1038C000F087AA6999F84534D9F82C04911E9940DB
:1038D000640A01442144BAF1000FABD0CAF5007468
:1038E000B4424FF0000209F5047028BF344605F0D9
:1038F00047F90028DAD000EB0A012246384606F0E4
:1039000081F92346C4E795F83330A9695B060DD5E4
:10391000013187E7D9F8140203683A461B699847D2
:103920000028C3D04FF400731C46B1E705F118021C
:10393000484601F043FD0028B8DB0CD0A969D5F852
:10394000209070E795F8313019077FF553AF44E7C1
:10395000A1EB02084EE795F8313013F0500FA5D0D7
:10396000A8EB060840469EE7F0B583B001220DF1B2
:1039700007010446D0E900678569FFF721FF0128A8
:1039800008BF9DF80700A56118BF4FF0FF30C4E9DC
:10399000006703B0F0BD00BF2DE9F84F90F831107B
:1039A000D0F818800446002950D01646D0E9002CE3
:1039B0009C4508BFB2421F4658D056EA07034AD07A
:1039C000080704D5D4E90403B042BB413ED3D4F880
:1039D000209099F845340933751EDBB247F1FF3A60
:1039E000C3F120000AFA00FBDD40A3F1200E2AFA01
:1039F0000EFA45EA0B0545EA0A0594F833A01AF0D9
:103A0000400F2FD112F1FF3A2AFA03F34CF1FF3A9B
:103A10000AFA00F003432AFA0EFA43EA0A039D4227
:103A200002D352EA0C0C24D14B064CBFD9F83434E3
:103A3000E369A36104F118094A4675B1A169206AD6
:103A400001F0BCFC002805F1FF35F5DCC4F8188056
:103A50000020BDE8F88F00238361C4E900670120DE
:103A6000BDE8F88FE3692B44A361F6E70120BDE8C8
:103A7000F88FED1ADEE700BF2DE9F04F064690F80B
:103A800031008FB0002840F0D880174691F83120DF
:103A900012F0500F8B4600F0D08003F00302032A8F
:103AA0009A4600F0CA80013203F0080142EA01039D
:103AB0000293002F00F0CA803A6902F10E08A84A6A
:103AC000A2FB0828DBE900214FEAD80808F1020828
:103AD0000A435FFA88F805D0CBF8180000210020CF
:103AE000CBE90001029B002443F0400325460393E9
:103AF000202206A95846FFF763FE00B3202840F0B5
:103B00009C809DF918209DF81830002AC0F2A180F1
:103B100034B9DBF80020A2F12009DBF8182001926B
:103B200044453CBF0134E4B2002B00F01281202256
:103B300006A958460025FFF743FE0028DED11AF4F7
:103B4000007F7AD0029B9B0777D5002F75D0444524
:103B500017D2DDF804A0202206A95846FFF730FE50
:103B6000631C002861D0202867D12CB9DBF8002025
:103B7000DBF818A0A2F12009DCB2A045EBD8CDF803
:103B800004A03822002130469BF8334008F000FEA4
:103B9000DBF820303362019B7362082386F83130F2
:103BA0003B68C6F82890C4F38014002586F82C40A2
:103BB0007B60BD81B8F1000F32D008F1FF39DFF82A
:103BC000A4A15FFA89F9AB46012259463046FFF7B6
:103BD00043FD044688B390F90020002A2DDB202203
:103BE000002108F0D5FD002D00F0BE80BBF1010FD3
:103BF00000F0D480C1232370A3461E34BB8938460D
:103C00001BB97A68BB689A4205D004F0E1FF2BF833
:103C1000020FA345F2D101355FFA85FBD845D3D811
:103C2000304600F0E3FA05460CE05846DBF8185041
:103C300000F00CFB002840F09080002586F8315001
:103C400086F8335028460FB0BDE8F08F4FF00308D8
:103C500048E755BB444538BF0024852B7FF448AF67
:103C600029463822304608F093FD9DF81C209DF827
:103C7000193086F8303002F03703D20658BF43F0CF
:103C8000080386F83130DBF80030DBF820203262A0
:103C9000203BDBF818207262B3629BF83330C3F329
:103CA000801386F82C30012522E7C02B28D0C12BA9
:103CB0007FF43DAF3A4606A9304601F081F9E8B1FC
:103CC000BB89DBB9BA687B689A4217D11AF4006FD6
:103CD000B3D11AF4884F6FD196F833309C076BD468
:103CE0001AF4806FA9D11AF4804FABD0D6E904231F
:103CF0003046FFF751FE0028A4D19EE70546F7E6BF
:103D0000029B86F833309DF819309B0744BF039B14
:103D100086F833300B9BF361DDE90823C6E9042301
:103D2000DDE90C23C6E90223002FCFD04FF00003BA
:103D30003A69BB819DF81B30396879609A427FF4FB
:103D4000F6AEBD8ABDF81C30ED1AB5FA85F56D09E1
:103D5000CEE6002F7FF4F3AE6FE7CBF818500CE7F8
:103D60008988888864A8FF1F8523237086F830908F
:103D700084F80190DAF80030002B41D00DF11302E5
:103D80000DF1160105A89847BDF814306381BDF800
:103D9000163023819DF8133023753CE7C023237030
:103DA000029B84F801B063F07F0386F833303B69EF
:103DB000E370BB8AA3802EE796F83130D8063FF532
:103DC0003CAF13F001027FF438AF1AF4806F8AD051
:103DD00096F8331089077FF530AF002B3FF42DAFF5
:103DE000D6E900310B4304D000200021C6E90001D0
:103DF000B261304600F0F2FB00283FF41EAF21E72D
:103E000045F621436381E381638204E72DE9F043B2
:103E1000044697B0994694F83130019200201490EE
:103E2000ADF814006BBB91F8313013F0500F0E4613
:103E300027D013782F2B154627D04FF0000813E01A
:103E4000019D2F78A7B3FFF717FE064634222146BF
:103E500008A8B6B105F0D6FE204600F0C7F908AEB6
:103E600084F8318084F83380294601AB02AA2046C9
:103E7000FFF752FC0546002302AA31462046002DDA
:103E8000DED1002017B0BDE8F08315F8011F2F29FF
:103E9000FBD0019599B938222046356A08F078FCA4
:103EA0000120402384F83130256284F83300E9E7AB
:103EB0004B4602AAFFF7E0FD17B0BDE8F0833822B9
:103EC000002108A8366A08F063FC01238DF85330FE
:103ED000402310968DF8513008AEAEE719B101F5C8
:103EE0008961FFF793BF0846704700BF90F83130F3
:103EF00063B991F8313013F0500F07D00B6813F00D
:103F00001F0C03D113466246FFF7B6BD0020704771
:103F10008169F8B50446006A01B10131012201F05E
:103F20000FF90128054632D9012301461A46206AB5
:103F300001F066F9064650B3A3695BB394F83320E9
:103F4000510612D5591CA94218D022F04002E1694D
:103F500084F8332005E0206A01F050FAB8B1A36973
:103F600039464F1C99423A46F5D3206A4FF0FF324A
:103F7000294601F043FA50B1A16911B9A561304653
:103F8000F8BD206A2A4601F039FA0028F6D1002649
:103F90003046F8BD94F8333043F0400384F83330B2
:103FA000ECE700BF90F833309A0736D5C16970B599
:103FB0000546A1B90024214607E0037803F07F03FA
:103FC000037095F830308B4229D301222846FFF741
:103FD00043FB0134E1B20028EFD1002070BD5B0645
:103FE000006A34D5D5E9022490F845340933013A02
:103FF000DBB244F1FF34C3F1200CDA4004FA0CFCCC
:10400000203B24FA03F342EA0C021A430132002354
:1040100001F0F6F80028CDD1DFE7002070472C6AC8
:10402000002385F8313085F83330204604F080FDD8
:104030000028D2D004F5047004F07AFD0028CCD01A
:10404000D4F840040368BDE870401B6A184701F0CB
:10405000F5F90028AED1C0E790F83130DB0601D485
:104060000020704710B5002288B000230446FFF7F7
:1040700093FC08E020281BD19DF900309DF800201A
:10408000002B15DB32B1202269462046FFF798FB52
:104090000028EFD194F83330082243F0020384F86B
:1040A000312084F833302046FFF77CFF08B010BD84
:1040B000002008B010BD00BF2DE9F0414FF000080E
:1040C000494F82B006464446414600223046FFF73B
:1040D000C3FA054630B10078C02867D0C1282BD07C
:1040E000852809D096F8323043F00103002086F885
:1040F000323002B0BDE8F08196F8313003F037037A
:10410000AB803B6883B10DF103020DF1060101A8FC
:104110009847BDF80630AB812B82BDF80430EB81A7
:104120006B829DF803306B75326A92F8103243F05F
:10413000010382F8103228780146002202E01F2A8B
:104140000FD8A95CE30343EA540311FA83F3012A6D
:104150009CB202F10102F2D1852814BF022204228E
:10416000EFE796F8303008F101085FFA88F18B42EA
:10417000ABD2306A012206F1240101F0C1F8002817
:10418000B0D0356A4480284604F0D2FC0028A9D07B
:1041900005F5047004F0CCFC0028A3D0D5F8400449
:1041A00003681B6A98470028A3D19BE796F8333031
:1041B00013F0400F6B7814BF43F0020303F0FD03CC
:1041C0006B70D6E90423F069316A6861C5E902239E
:1041D000D6E90223C5E9062391F8103243F0010322
:1041E00081F810322878A7E764A8FF1F38B590F847
:1041F000313043B390F9332090F83330002A04462D
:104200000CDB056A284604F093FC78B994F8323048
:1042100043F0010384F83230002038BD03F07F03FF
:1042200080F83330BDE83840FFF746BF05F504702D
:1042300004F07EFC0028E9D0D5F8400403681B6A2E
:1042400098470028E2D0012038BD00BF70B590F833
:1042500031305A0605464CD480682B6AD3F83C347A
:104260001844B0F1806F01D3002070BD2846FFF7DD
:104270004FFE0028F8D0286AAE6990F84524D0F89F
:104280002C34023E96401E4400243119052200F5CC
:10429000047004F075FC01344FF400720021002812
:1042A000E2D008F075FA286A90F84524012393407B
:1042B0009C42EAD395F831305B0615D495F833303B
:1042C000AA6863F07F0385F83330D0F83C142B697B
:1042D000E8685218AA606A6940F100005B1842F170
:1042E0000002C5E90432E8602846BDE87040FFF7E7
:1042F0007DBF006A01F0A6F9AFE700BF30B5044604
:1043000090F831009DB0002510F0180F0C951A950B
:1043100003D00B6A206A984202D000201DB030BD45
:1043200040F601236846FFF771FD0028F5D03422DE
:1043300021460EA805F066FC09AA07CA04F1240369
:1043400083E8070094F833309DF830C084F830C01B
:1043500063F07F03204684F83330FFF747FF0028DF
:10436000DBD0022208230EA815958DF86B208DF85E
:104370006930FFF717FED1E738B591F8313013F007
:10438000500F02D10025284638BD40F602230446CE
:10439000FFF772FB0028F5D0102384F83130204657
:1043A000FFF754FF05460028ECD0A369E361002223
:1043B00000232046FFF7F0FA94F83130C12284F848
:1043C0003320002BDFD0412384F833302046BDE872
:1043D0003840FFF771BE00BFF0B5044697B01F46E6
:1043E00094F8313001920020ADF8140014907BBB9A
:1043F00091F8313013F0500F0D4629D013782F2B40
:10440000114619D127E0019E3678002E31D0FFF7F2
:1044100033FB034602AA294620461BB9C7B1FFF762
:10442000ABFFA8B12146342208A805F0EBFB2046DB
:10443000FFF730F9019908AD01AB02AA2046FFF75A
:104440006BF90646002302AA29462046002EDAD13F
:10445000002017B0F0BD013101910B782F2BFAD05D
:10446000296A08A8FFF744F90028F1D0019908AD9E
:10447000E2E702AAFFF780FF17B0F0BD2DE9F04F89
:1044800090F8314083B024079DF830709DF8349047
:104490009DF838A09DF83C8057D5A2F2BC7294B22A
:1044A0007F2C52D85A1E0B2A01934ED87A1E1E2AF0
:1044B0004BD8B9F1170F48D8BAF13B0F45D8B8F12E
:1044C0003B0F42D805460E46FFF790FE00283CD031
:1044D000019B47EA431747EA44244FEA580747EA53
:1044E0004A1747EAC9274FF0000A18F00108A4B29A
:1044F000BFB218BF4FF06408D346514606F0010919
:1045000000222846FFF7A8F8F8B10178852946D09F
:1045100001F14003DBB2012B17D88C46002203E0E7
:104520001F2A16D810F802C04FEACB3343EA5B03C8
:104530001CFA83F3012A1FFA83FB02F10102EFD177
:10454000852914BF02220422ECE7002003B0BDE855
:10455000F08F95F830300AF1010A5FFA8AF18B4248
:10456000CED2286A012205F1240100F0C9FE0028FC
:10457000EBD02C6AA0F802B0204604F0D9FA00284B
:10458000E3D004F5047004F0D3FA0028DDD0D4F8A9
:10459000400403681B6A03B0BDE8F04F184795F864
:1045A00031302A6A03F03703838092F8103243F0E7
:1045B000010382F81032B9F1000F01D00782448262
:1045C000B20703D580F8148007814481730701780E
:1045D00042BF80F815808781C4819EE790F8333010
:1045E0009A0764D570B5C56982B00446002D35D0F0
:1045F00013F0400635D0006AA26890F845C4E1681F
:104600000CF1090C5FFA8CFC013A41F1FF31CCF15D
:10461000200E22FA0CF201FA0EFEACF1200C21FA67
:104620000CFC42EA0E02A16942EA0C02013221B3FB
:10463000013D6D1A01312A440191002A2ED1D4E99D
:10464000000163F07F03C4E90201C4E9040184F8B6
:1046500033302046FFF7CAFD02B070BD012002B022
:1046600070BD816961B90195C161206A294600F078
:10467000E5FEC8B194F83330E1E70195E161DCE78C
:10468000006A019601AA00F099FE00280CDB10D107
:10469000019D002DE9D194F83330D0E70199002332
:1046A00000F0AEFD0028E5D1002002B070BD002072
:1046B0007047A169206A4FF0FF3200F09FFE00288A
:1046C000E6D1F1E72DE9F84390F833309D07044631
:1046D00040F1A28017461A070E4600F19680002F7F
:1046E00000F0288123683D46206AA169D0F838246B
:1046F00002EA0309C9F30808B9F1000F40F09580F8
:10470000002900F0D58094F833305B0640F1ED804D
:10471000D4E9023290F845C40CF1090C013B5FFA70
:104720008CFC42F1FF32CCF1200E23FA0CF302FA9A
:104730000EFEACF1200C22FA0CFC43EA0E03E269F7
:1047400043EA0C031344994280F0D6800131A16101
:1047500090F84524D0F82C34023991401944B5F52D
:10476000007FC0F08D80B5F5806FC0F0A780012379
:104770009340A3EB09036A0A934228BF1346D0F87B
:104780001C228A424FEA43290AD303EB010C6245FB
:1047900006D2002280F810224FF0FF32C0F81C220F
:1047A000D0F814020268D2F828803246C04798B385
:1047B0004B46D4E900125B182169606942F100029E
:1047C00099429041C4E900324E44A5EB090507D255
:1047D00094F83310236161F07F0184F83310626133
:1047E000002D81D1D4E9020198429141C0F0958019
:1047F000524B1B68002B00F09B8094F8333063F021
:104800007F03384684F833300DE0D0E90423FFF706
:10481000C3F800287FF463AF94F8323043F001030B
:10482000002084F83230BDE8F88390F84524D0F8B1
:104830002C3402394FEA5929914049441944B8F1BE
:10484000000F8CD0C8F50079A9454FF0010200F5A2
:10485000047028BFA94604F093F90028DCD0404436
:104860004A463146C84405F0CDF9B8F5007F206AC4
:104870009ED100F5047004F05BF9002898D1CBE7D5
:104880002268D4F810C063696245626872EB030362
:1048900012D2012200F5047004F072F90028BBD096
:1048A0002A463146404405F0ADF9A9462B4680E73B
:1048B000E16949B3A1614BE70522EBE7D0F81C326F
:1048C0008B4206D1002380F810324FF0FF33C0F83E
:1048D0001C32D0F81402036832465B6A98470028FD
:1048E0009AD04FF40073994663E704F1180200F080
:1048F00065FD002890DB04D12046FFF709FB002866
:104900008AD0A169206A23E72046FFF701FB00282F
:1049100082D0A169206AE1611AE794F83310A3609C
:1049200061F07F0384F83330E2603846BDE8F883F5
:10493000384678E7D4E9003254E700BF64A8FF1F87
:1049400069B170B5054608460C4607F0F9FF2B68BB
:104950000246214628465B68BDE87040184770470C
:104960008368C3F30803014663B100200A69D05489
:104970000133B3F5007FF9D1C8680A690368096893
:104980005B6A18470120704782680346C2F3080239
:1049900000698154586801EB70019868596040F2D1
:1049A000FF1C01306245986001D001207047D86833
:1049B000196810B40468646A4A1C1A601A692346AC
:1049C00010BC184738B583680446C3F30803006970
:1049D000CAB2C2540D46616802EB7102A1686260FE
:1049E00040F2FF1201319342A16005D0290A20460E
:1049F000BDE83840FFF7C8BFE068216803684A1C7B
:104A00005B6A2260226998470028EFD138BD00BF59
:104A1000F8B50025C0E9001506468560A8B204F087
:104A2000E1F9A842044607D0C1B23046FFF7ACFF17
:104A300000283BD10020F8BD6C1CB4F5803F04D1A8
:104A40002AE00134B4F5803F04D0A0B204F0CAF9E2
:104A5000A042F6D0671BB7F5007F1DD34FF6FF715C
:104A60003046FFF7AFFF0028E4D0B9B23046FFF779
:104A7000A9FF0028DED02546B5F5803FCED13046CF
:104A8000BDE8F840FFF76CBFC5F307213046FFF7DC
:104A90007BFF01350028CDD0A542E9B23046EBD2EC
:104AA000FFF772FF0028EFD10020F8BDC4F3072103
:104AB0003046FFF769FF0028BCD00135DCE700BFB6
:104AC0002DE9F04F0F4689B0096804901546CA6970
:104AD000C7600561384698469047B0F5801FC0F022
:104AE000C0800646002301220133DBB2202B4FEAAF
:104AF000420200F0C1809642F6D81C2B00F2BC8026
:104B00001A2B4FF0080A00F237824FF480430193CA
:104B10004FF4004303934FF4807307934FF4005313
:104B2000CDF808A00693039B0298019CF31AC3409A
:104B300003FA00F94FF4007200212846059307F0AC
:104B400027FEFF2385F8C43185F8C531072385F892
:104B5000C231A144FE230194C5F8C641012485F861
:104B6000BF4185F8C04185F8C3313B68C5F8CA919B
:104B70004AF6552B5B6AA5F8FEB12A460021384655
:104B8000984700285ED04FF400720021284607F0B5
:104B9000FFFD019B2B64AB65059BEB6520232B720E
:104BA0006B72AB72EB232B7076236B709023AB7020
:104BB0004523EB7058232B7146236B714123AB7156
:104BC0005423EB7104232B664FF48073A5F86830EF
:104BD0000923069A85F86C3080236E662A656A651B
:104BE000C5F848904FF4C37285F86DA085F86E4003
:104BF00085F86F30F42105F1780007F0C9FD002633
:104C0000A5F8FEB16A1E00E00134A4F16B03012B8C
:104C1000FAD9712CF8D0135DB4F5007F03EB76065A
:104C2000F2D13B68DDF804905B6A2A464946384673
:104C3000984738B13B682A465B6A09F10C0138464F
:104C4000984780BBB8F1000F06D0D8F80030B649BD
:104C50005B680F22404698470024204609B0BDE813
:104C6000F08FB8F1000FF7D0D8F80030AF495B688B
:104C7000152240469847E8E7A3F10B0A4FEA6A017C
:104C800001228A400291CAF3470A079201335B105E
:104C900001229A40069204229A400392022202FACA
:104CA00003F301933FE722460021284607F070FDF9
:104CB0004AF65523A5F8FE3109F1010A09F1090B5D
:104CC000002305F2FF192C4601E014F8013FA1452D
:104CD00003EB7606F9D13B682A465B6A51463846B3
:104CE00098470028AED03B682A465B6A0AF10C015F
:104CF000384698470028A5D00AF101039B4502D009
:104D00009A462B78DFE74FF40072002128469B4635
:104D100007F03EFD00220AF1030A11462B4601E08E
:104D200013F8011F9C4201EB7606F9D13B682A4635
:104D30005B6A594638469847002883D03B682A4624
:104D40005B6A0BF10C013846984700283FF47AAFB4
:104D50000BF101018A4564D12B1F05F5FE7243F862
:104D6000046F9A42FBD13B682A465B6A38469847F3
:104D700000283FF467AF3B680BF10D015B6A2A46E0
:104D80003846984700283FF45DAFB8F1000F06D0D1
:104D9000D8F8003066495B680C2240469847019B72
:104DA000DDF81890DFF88CB19944059B4FF4007240
:104DB000002128469E0007F0EBFC2846F82306F267
:104DC000072600F8013B1322FF214FEA562A07F07D
:104DD000DFFCB60B002402E00134A24524D0B4FB72
:104DE000F6F306FB13434BB90122B8F1000F05D0CF
:104DF000D8F8003059465B68404698473B6809EB55
:104E000004015B6A2A463846984700283FF41AAFE7
:104E1000002CE1D121464FF40072284607F0B8FC7F
:104E2000DAE78B46297879E7B8F1000F2BD0D8F86C
:104E3000003041495B68022240469847059C079A2A
:104E40000734E40804F2FF13B2EB532F4FEA53295F
:104E5000FFF4FBAE4FF400720021284607F098FCE7
:104E600007232B70002604E006B92E700136B145E9
:104E700016D9039A3B68B1185B6A2A4638469847A8
:104E80000028F1D1DEE6059C079A0734E40804F215
:104E9000FF13B2EB532F4FEA5329FFF4DDAED9E7EE
:104EA000B8F1000F77D0D8F8003024495B6816229B
:104EB00040469847039B079A04989918FFF7A8FD66
:104EC00000283FF4C2AE029A4FF400739340049A54
:104ED00092689A423FF6B9AE19494046FFF730FD55
:104EE000029B4FF0020909FA03F6039B4FF400728C
:104EF000002128461E4407F04BFC8122032385F83D
:104F000020200499C5F8349082222B7085F8402027
:104F10004A686A646B658B68AB650023013EAC63CD
:104F2000EB654FF0010912E0B8D0000054D000004A
:104F30006CD000007CD0000094D0000080D0000035
:104F400098D00000079B99451CD209F101093B68E4
:104F500006EB09015B6A2A46384698470446002852
:104F60003FF470AEB9F1010FECD14FF400720021A3
:104F7000284607F00DFCE8E74FF480720792CDF861
:104F800008A083E6B8F1000F3FF467AE0B49404636
:104F9000FFF7D6FC61E6039B079A04989918FFF780
:104FA00037FD00283FF458AE029A4FF40073934047
:104FB000049A92689A4293D94EE600BFA8D00000A6
:104FC0002DE9F0410C46154601F11E08AB8934F875
:104FD000027F28461BB96A68AB689A420ED003F07C
:104FE000F7FD03F0FFFE0646384603F0FBFE86425F
:104FF00009D14445EAD10120BDE8F081B7FA87F034
:105000004009BDE8F0810020BDE8F0812DE9F04FB6
:1050100090F8313083B08846002B4ED090F8303075
:10502000012B074651D9013ADFF8A4B00B464FF0E7
:10503000020A8E1800240022514638460193FEF7DA
:105040000BFB0546C8B30278C12A36D1019B00F19B
:105050001E0935F8020F24B300F5105292B2B2F5D2
:10506000806F2AD20BEA8424C0F30900204300F5A4
:1050700080301946324603F021FE0346E8B1002491
:105080004D45E6D197F830200AF1010A5FFA8AFA15
:105090005245D0D2A3EB08009846002388F8003090
:1050A0000EE000F5205292B2B2F5006F02D3002854
:1050B000DFD1EFE7B2F5806F05D3002088F800005C
:1050C00003B0BDE8F08F0446DAE70020E5E700BF53
:1050D00000FC0F0070B50C460A6862600023194698
:1050E000A38123611E464FF6FF7517E003F070FDA4
:1050F000A84222D003F076FEF30343EA560353FAA4
:1051000080F399B22269C3F34E0343EAC133000A24
:1051100010FA83F30132A18922619EB22046002950
:10512000E4D16268A3689A42E0D12069A68201387E
:10513000FE288CBF0020012070BD002070BD00BF84
:105140002DE9F84F074691468A46002942D0D7F804
:105150003034A1F10208434542D908F00703012584
:105160009D40C8F3C80BEDB246464446D7F82C1410
:10517000002201EB1431384603F002FDE8B10BF1D7
:10518000FF3B834400F2FF101BF8011F0AE04A4571
:105190002BD0A04510D0D7F83054A54214D913F025
:1051A000FF050CD0013429424FEA4503A4EB060267
:1051B000EDD0A0452646EED10120BDE8F88F584538
:1051C0004FF00105E0D101E00026344601254FF003
:1051D000000BCBE7D0F82084D7F830344345BCD857
:1051E0004FF000080125C346BEE7BAF1000F04D115
:1051F000B9F1010F08BFC7F82064B01CBDE8F88FF3
:105200002DE9F843154698468A1ED0F830345119D6
:1052100099423AD80646B8F1000F39D1D0F8203477
:10522000934288BFC0F82024D6F82C7402F00703FC
:1052300001249C4007EB1231C2F3C809E4B20122F9
:1052400030468F1803F09CFCF8B109F1FF3E86440C
:1052500000F2FF101EF801CF1CEA040F14BF012258
:10526000002242458CEA040C4FEA44040DD0013D73
:105270008EF800C018D014F0FF04EDD17045A1469F
:105280004FF00104E6D13946D9E70020BDE8F883A4
:10529000D0F820049042C7D38142C5D9994228BF93
:1052A0000021C6F82014BFE70120BDE8F88300BF45
:1052B000F8B5D0F8303401338B4201D20020F8BD6C
:1052C00007460C4600F50476002506E0D7F8303492
:1052D0000133A34205F10105F0D3D7F824140022CD
:1052E00001EBD411304603F04BFCA400C4F30804D6
:1052F0000028E3D00459631CE8D1681CF8BD00BF46
:1053000038B50C460B6890F845C4D0F83814656879
:10531000023B294003FA0CF303EB5123D0F82C1481
:1053200000F50470194403F02BFC18B16368C3F353
:105330000803184438BD00BF2DE9F843D0F83834CD
:105340000C4649680B401144616090F845141344C1
:1053500001F10902D2B2D3402BB380465D1E00F5A5
:10536000047905E02368013D03F1010323601AD3AA
:10537000267A002EF6D1D8F83034276801339F42C0
:105380003246484612D8D8F8241401EBD71103F05E
:10539000F7FBBF00C7F3080740B1C3595A1C09D037
:1053A000013D2360E4D20120BDE8F8834FF0FF30D7
:1053B000BDE8F8833046BDE8F88300BF38B5D0F8C3
:1053C000303401338B4202D24FF0FF3038BD0C46EF
:1053D000D0F82414154601EBD411002200F5047016
:1053E00003F0CEFB0028EFD0A400C4F30804035957
:1053F0005A1C1ABF2B600120002038BD01291BD97F
:1054000038B5D0F8303401338B420C4601D200203D
:1054100038BDD0F82414154601EBD411012200F553
:10542000047003F0ADFB03460028F0D0A400C4F3E1
:10543000080401201D5138BD00207047D0F83034D9
:105440000133994201D9002070472DE9F04F0546FC
:1054500081B00C4600F504790F464FF00008D5F8EE
:105460002414002201EBD411484603F089FBE30920
:1054700098B14FEA840BCBF3080B50F80B20511C6A
:1054800016BF16464FF0000A4FF0010A012C04D94E
:10549000D5F830240132944203D9002001B0BDE890
:1054A000F08FD5F8241401221944484603F068FB14
:1054B0000028F2D040F80B80BAF1000F12D001346E
:1054C000B44208D00023E21B39462846FFF798FE75
:1054D0000028E2D03746D5F830340133B342DCD36C
:1054E0003446BCE7621C5346D21B3946284601B0FD
:1054F000BDE8F04FFFF784BE2DE9F843D0F82C1437
:105500000025064600F504782C46002240464F1C34
:1055100003F036FBB0B100F1FF3E04F58059D6F838
:10552000300405E081B9083484420AD24C4517D0D2
:105530001EF8011FFF29F5D10834844205F1080542
:10554000F4D3401BBDE8F8830822012319424FEA37
:10555000430C18BF0135013A5FFA8CF3F6D1E2E74C
:105560003946D2E7F8B5044600234FF0FF3004F582
:105570000477C4F840146160E060C4F81412C4F801
:105580001C02154684F84434237084F810321A46FD
:105590001946384603F0F4FA042D0CD8064650B1EB
:1055A0005DB927490522F01C07F044F918B996F8AF
:1055B0006C30092B19D00020F8BD6B1E00EB0313D3
:1055C00093F8BE2112F07F02F5D193F8C231002B7F
:1055D000F1D000EB05163846D6F8B651294603F04F
:1055E000CFFA06460028DCD1E5E7336D2B44C4F83A
:1055F0002434736DC4F82834B36D2B44C4F82C34B0
:10560000F36DC4F83034336EC4F8343496F86D203A
:1056100084F84524012502F1090305FA03F3C4F8CF
:105620003C34013BC4F83834C4F8200401462A460F
:105630002046FFF785FD402384F844342846F8BD12
:10564000C8D0000010B50446D0F83414FFF730FE7F
:1056500094F845340933DBB2984010BD70B590F929
:105660000230002B82B004460DDBA56805F128004E
:1056700003F05EFA00283BD1637843F00103002079
:10568000637002B070BD8068A1690122283003F008
:1056900077FA0028F0D0A58805F00F056B0100EB24
:1056A0004515C35CE52BE7D02378184A1B0744BF98
:1056B000E369EB61236A16686B831A0CAA8266B1F0
:1056C0000DF103020DF1060101A8B047BDF8043049
:1056D000BDF806202B836B82EA82A378A56803F0CD
:1056E0007F03A37005F1280003F022FA0028C3D03D
:1056F00005F50E7003F01CFA0028BDD02868036879
:105700001B6A98470028B7D0BBE700BF64A8FF1FFB
:10571000024638B552F8105F04462946806801F009
:10572000D9FF50B155B123690135AB42A37818BFF9
:1057300003F0BF0363F07F03A37038BDA37843F089
:105740004003F7E7F8B5047814F0200404D11A4BAD
:1057500042699A42054602D300273846F8BDFFF752
:10576000D7FF07460028F7D0A8682E6982794369D9
:10577000023E96401E440379ABB1214606E007F095
:1057800007F8A8680379E1B28B420BD931440522AE
:10579000283003F0F5F901344FF40072002100289D
:1057A000EDD1D9E7827969694FF40073934011FA1A
:1057B00083F36B613846F8BD00FE1F0010B5044648
:1057C00080680A462830A16903F0DAF920B1A3887D
:1057D00003F00F0300EB431010BD00BF10B50378BA
:1057E00004462BB1FFF73AFF00232370A37010BDCE
:1057F00000232370A370012010BD00BF38B50378CB
:1058000004460D4613B1FFF729FF88B1A068A169CE
:105810000022283003F0B4F950B1A38803F00F033D
:1058200000EB43112022284604F0ECF9012038BD9A
:10583000002038BD30B589B00D4669461446FFF7E3
:10584000DDFF28B1BDF81020BDF80E302A8023807E
:1058500009B030BD30B589B00D4669461446FFF732
:10586000CDFF28B1BDF81820BDF816302A8023805E
:1058700009B030BD0B7813F0700F01D100207047D4
:10588000F0B540F6022389B00D46044601F060F8F9
:1058900038B101221023A27023702046FFF752FF77
:1058A00010B9002009B0F0BD2378226922626BB1E3
:1058B000636933B1A378002223F02003226162617F
:1058C000A3702046FFF7CAFE0028EAD0A068A169AD
:1058D0000122283003F054F90028E2D0A38803F015
:1058E0000F0300EB43111022CA726846202204F015
:1058F00089F90A2220210DF1010006F049FFA06874
:10590000216A837902399940436901221944283078
:1059100003F036F906460028C3D02E272022694618
:105920008DF8007004F06EF92B6A8DF801701A0C76
:10593000ADF81420694606F120002022ADF81A3097
:1059400004F060F9A46804F1280003F0F1F80028DD
:10595000A7D004F50E7003F0EBF80028A1D0206862
:1059600003681B6A09B0BDE8F04018472DE9F04113
:10597000044694B09846237801920020ADF81400B4
:105980000B90002B40D10B7813F0700F0D463BD0DD
:1059900013782F2B16463BD0002728E0019E36783F
:1059A000002E4ED000F0D4FF034602AA294620461E
:1059B0002BB9B8F1000F27D0FFF75CFF20B3A64644
:1059C000BEE80F000DF12C0CACE80F00BEE80F0094
:1059D000ACE80F002378DEF80020CCF80020204649
:1059E0000BB1FFF73BFE019E2770A7700BAD314650
:1059F00001AB02AA204601F0EDF8064602AA2946AC
:105A000000232046002EC9D1002014B0BDE8F0814B
:105A10000136019633782F2BFAD0AD68242200216D
:105A20000BA806F0B5FE0D95EB79102B0FD0202BAF
:105A3000EAD140238DF82C3001238DF82E300BADA8
:105A4000AAE702AAFFF716FF14B0BDE8F0812023F1
:105A5000F0E700BF2DE9F041044694B09846237862
:105A6000019200200290ADF83800002B36D10B785F
:105A700013F0700F0E4631D013782F2B154631D00E
:105A800000271EE0019D2D78002D41D000F060FF21
:105A9000A6460DF1080C08B3BEE80F006646ACE858
:105AA0000F00BEE80F00ACE80F002578DEF80030EC
:105AB000CCF8003020460DB1FFF7D0FD019D2770D6
:105AC000A770294601AB0BAA204601F083F80546D2
:105AD0000BAA314600232046002DD3D1002014B05C
